:020000040800F2
:10000000985D0120D5030008132B00083126000855
:10001000112B000899220008053B00080000000091
:1000200000000000000000000000000015030008B0
:10003000B32200080000000071030008F935000831
:10004000EF030008EF030008EF0300088533000802
:10005000EF030008EF030008B5220008EF030008D3
:10006000F12200082D23000869230008EF0300088F
:10007000EF030008EF030008EF030008EF03000898
:10008000EF030008EF030008EF030008EF03000888
:10009000EF030008EF030008EF030008A5230008A2
:1000A000EF030008EF030008EF030008EF03000868
:1000B000EF03000881360008EF030008EF03000893
:1000C000EF030008EF030008EF030008EF03000848
:1000D000EF03000819380008B53800080139000896
:1000E000EF030008EF030008EF030008EF03000828
:1000F000EF030008EF030008EF030008EF03000818
:10010000EF030008EF030008EF030008EF03000807
:10011000EF030008EF030008EF030008EF030008F7
:10012000EF030008EF030008EF030008EF030008E7
:10013000EF030008EF030008EF030008EF030008D7
:10014000EF030008EF030008EF030008EF030008C7
:10015000EF030008EF030008EF030008EF030008B7
:10016000EF030008EF030008EF030008EF030008A7
:10017000EF030008EF030008EF030008EF03000897
:10018000EF030008EF03000800F002F800F0B2F8F7
:100190000AA090E8000C82448344AAF10107DA45E2
:1001A00001D100F0A7F8AFF2090EBAE80F0013F082
:1001B000010F18BFFB1A43F00103184758A40000B1
:1001C00078A400000A444FF0000C10F8013B13F033
:1001D000070408BF10F8014B1D1108BF10F8015BA0
:1001E000641E05D010F8016B641E01F8016BF9D193
:1001F00013F0080F1EBF10F8014BAD1C0C1B09D1EA
:100200006D1E58BF01F801CBFAD505E014F8016B5B
:1002100001F8016B6D1EF9D59142D6D370470000ED
:100220000023002400250026103A28BF78C1FBD8FF
:10023000520728BF30C148BF0B6070476E2900F0DD
:100240008485702900F0B381662909F0EC82652964
:1002500009F0E982672909F0E6826129AFF300809D
:1002600003681B0A28BF41F08001692900F024813E
:10027000642900F02181752900F01E816F2900F0AA
:100280006786782900F07F81E92900F00186E4295A
:1002900000F0FE85F52900F0FB85EF2900F064866B
:1002A000F82900F07E810368DB0928BF41F0800156
:1002B000632901F03E81732901F04381E32901F0B4
:1002C0004E81F32901F05381002070471FB509F0DA
:1002D000A5FA01F05DFB04000020002109F088FA76
:1002E000401C60600020002109F06CFAE0601FBD36
:1002F00010B510BD01F01EFB1146FFF7E7FF06F039
:10030000BFFC01F0F7FB03B4FFF7F2FF03BC03F0FF
:100310008CFC00002C4B19680868B0E8F04F80F3A3
:100320000988BFF36F8F4FF0000080F3118870478A
:100330000000000008480068006880F308884FF05B
:10034000000080F3148862B661B6BFF34F8FBFF32D
:100350006F8F00DF00BF00BF08ED00E0DFF80C008A
:10036000016841F470010160704700BF88ED00E052
:10037000EFF30980BFF36F8F134B1A681EF0100F55
:1003800008BF20ED108A20E9F04F106009B44FF04B
:10039000500080F31188BFF34F8FBFF36F8F08F0C9
:1003A00007FB4FF0000080F3118809BC196808684A
:1003B000B0E8F04F1EF0100F08BFB0EC108A80F3C9
:1003C0000988BFF36F8F7047B4060020EFF30580F4
:1003D000704700000948804709480047FEE7FEE7EC
:1003E000FEE7FEE7FEE7FEE7FEE7FEE7FEE7FEE7E5
:1003F00004480549054A064B7047000025360008A9
:1004000089010008983D0120985D0120984D012048
:10041000984D0120704700000A46014900F0C8BC11
:10042000A00600200FB4044910B503AA029800F0FA
:10043000BFFC10BC5DF814FBA00600200FB41CB577
:10044000084B06AA7B4469460090059800F097FC8B
:1004500004460020694600F0A5FC20461CBC5DF85F
:1004600014FB00005D09000070B504468569006852
:10047000C10601D5302600E02026C00707D070BD98
:10048000D4E9012130469047206A401C20626D1E4D
:10049000F6D570BD70B5044685690078C00707D1F0
:1004A00070BDD4E9012120209047206A401C2062C1
:1004B0006D1EF6D570BD00002DE9F0410646002402
:1004C00010687529314616A510D000F0AAFB002847
:1004D00002DA404213A507E031688A0701D512A568
:1004E00002E0490704D511A5012401E000F0A2FBB8
:1004F00000210A2206F1240709E0B0FBF2FCB0FB60
:10050000F2F302FB1C00303078541846491C0028D6
:10051000F3D123462A463046BDE8F04100F0BCBB8B
:10052000000000002D0000002B0000002000000053
:10053000F0B40D460188090502D5214C7C4402E047
:100540001F4C7C440E34002100F1240608E002F028
:100550000F071209E75D42EA03721B097754491C31
:1005600052EA0307F3D102780023120704D5702D55
:1005700006D009B1022311342246F0BC00F08CBB36
:1005800001231034F8E770B504460D462146106883
:1005900000F050FB024629462046BDE8704000238B
:1005A000C6E7D21D22F00703D3E90023C0E70368A2
:1005B000126843F0200303600823C3610023B7E7F8
:1005C000D89C00002DE9F05F894604464FF0000AF0
:1005D000DFF874B1FB44C0F820A02046E1688847EA
:1005E000002874D0252806D0D4E901219047206A3C
:1005F000401C2062F1E700265F462046E1688847FC
:100600002028054607DB312D05D2781910F8200C7B
:1006100008B10643F1E7B00701D526F00406C4F897
:100620001CA00027C4F818A02A2D09D0284603F0E2
:10063000F5FA38B304EB8708303DC8F8185019E0D4
:1006400059F8041B204604EB87029161E168884752
:10065000012F054618D1E069002820DA26F020068F
:100660001DE0D8F8180000EB800005EB40003038A2
:10067000C8F818002046E1688847054603F0CEFA1E
:100680000028EED1012F0AD02E2D08D12046E16896
:1006900088477F1C0546022F46F02006C4DBA06970
:1006A000002803DA404246F00106A061F00701D0BD
:1006B00026F010066C2D0BD0682D09D04C2D39D0AA
:1006C0006A2D35D0742D35D07A2D33D016E038E030
:1006D000E1682F4620468847B842054609D16C2F6D
:1006E00026D04FF48060E1680643204688470546DF
:1006F00004E06C2F1AD04FF4807006430DB3A5F1BF
:100700004100192802D8203546F400664A46294699
:10071000204626604E46FFF791FD80B101280BD0A0
:10072000F61D26F0070000F1080956E74020E4E72F
:100730008020D8E70020D6E706F104094DE72846D7
:1007400052E7206ABDE8F09F689C00000FB400B536
:100750008DB010A9099000910B904FF0FF300A90D6
:1007600000200C90064878440690064878446A4673
:1007700007900F9909A800F015FC0DB05DF814FB67
:100780005B080000730800002DE9FF5F1D464FF075
:10079000FF3B91464FF000085F46D5E90146A96945
:1007A00001987F1C8847296A824688470028F6D12D
:1007B000BAF1FF3F0CD0002E24F4C06419DD6006AE
:1007C00014D5BAF12B0F09D0BAF12D0F0ED103E0D9
:1007D000584604B0BDE8F09F44F48064A9690198CC
:1007E0007F1C8847761E8246002E02DDBAF1300F4C
:1007F00003D0B9F1000F26D032E0A969761E019826
:100800007F1C44F400748847002E824605DDBAF14F
:10081000780F06D0BAF1580F03D0B9F1000F10D0FD
:100820001EE0B9F1000F02D0B9F1100F18D1A9697B
:10083000761E01987F1C24F400748847824610209D
:1008400002E0082000E00A20814609E0A96908FBCF
:100850000908761E01987F1C44F40074884782467C
:10086000002E05DD4946504600F088FB0028EDDAF1
:10087000E96901988847A00502D46FF00100A8E754
:10088000E00725D1600613D5600502D5C8F1000048
:1008900000E0404629680A1D2A600968220501D542
:1008A000087015E0220701D5088011E008600FE00C
:1008B0002868011D29600068210502D580F80080A4
:1008C00006E0210702D5A0F8008001E0C0F8008012
:1008D00038467EE72DE9FF5F4FF000089946144641
:1008E00046469169D2E901A7DDF838B001988847FA
:1008F000054659EA0B0005D009E0A1690198761C6C
:1009000088470546216A284688470028F5D1681C93
:1009100003D05FEACA7005D015E04FF0FF3004B095
:10092000BDE8F09F2068011D2160D0F800800AE03A
:100930005FEACA7001D108F8015BA169761C0198D1
:100940007F1E88470546002F1ADD681C18D0B9F1B4
:10095000000F0DD0E81705EBD060421120F01F000A
:1009600059F822102A1A012090400142E0D107E0F4
:10097000BBF1000FDCD12846216A88470028D7D078
:10098000E16901988847BBF1000F07D1002E05DD12
:100990005FEACA7002D1002188F80010A068B8424E
:1009A00003DDBBF1000F03D017B16FF00100B6E714
:1009B0003046B4E730B505460B462A4613F8014BDE
:1009C00012F8010B08B1A042F8D01CB1002802D0E7
:1009D0006D1CF1E7284630BD40EA010310B59B07C6
:1009E0000FD1042A0DD310C808C9121F9C42F8D099
:1009F00020BA19BA884201D9012010BD4FF0FF304A
:100A000010BD1AB1D30703D0521C07E0002010BD5F
:100A100010F8013B11F8014B1B1B07D110F8013BEB
:100A200011F8014B1B1B01D1921EF1D1184610BDCC
:100A300010B5431C02E010F8011B71B18107FAD117
:100A40004FF0013202C88C1A8C4314EAC211F9D05B
:100A5000C01A0A0603D0C01E10BDC01A10BD0A0479
:100A600001D0801E10BD0902FCD0401E10BD032A1B
:100A700040F2308010F0030C00F0158011F8013BBB
:100A8000BCF1020F624498BF11F801CB00F8013BA2
:100A900038BF11F8013BA2F1040298BF00F801CB66
:100AA00038BF00F8013B11F0030300F0AB82083AB5
:100AB000C0F0088051F8043B083A51F804CBA0E894
:100AC0000810F5E7121D5CBF51F8043B40F8043BE9
:100AD000AFF30080D20724BF11F8013B11F801CB1E
:100AE00048BF11F8012B24BF00F8013B00F801CBEF
:100AF00048BF00F8012B704702F0FF0343EA0322CE
:100B000042EA024200F002B84FF000020429C0F0AD
:100B1000128010F0030C00F01B80CCF1040CBCF12F
:100B2000020F18BF00F8012BA8BF20F8022BA1EB81
:100B30000C0100F00DB85FEAC17C24BF00F8012B66
:100B400000F8012B48BF00F8012B70474FF000025E
:100B500000B5134694469646203922BFA0E80C50B3
:100B6000A0E80C50B1F12001BFF4F7AF090728BF8E
:100B7000A0E80C5048BF0CC05DF804EB890028BF0A
:100B800040F8042B08BF704748BF20F8022B11F033
:100B9000804F18BF00F8012B704700004FF0013C58
:100BA00050F8042B51F8043B9A4221D1A2EB0C03DC
:100BB000934313EACC1317D150F8042B51F8043B9C
:100BC0009A4215D1A2EB0C03934313EACC130BD139
:100BD00050F8042B51F8043B9A4209D1A2EB0C03C4
:100BE000934313EACC13DBD04FF00000704700BFF3
:100BF000D01A01BAB1FA81F101F0180122FA01F01C
:100C0000CB40C1F12001DBB2C0B2C01A2CFA01F313
:100C1000D11A914311EAC311E6D17047704770476A
:100C2000704709684A0501D540B27047C905FCD52F
:100C300000B2704709684A0501D5C0B27047C905BE
:100C4000FCD580B2704770B50C460546012A05D028
:100C50002878800600D5EA69002302E0012305E038
:100C60005B1C934202D2E05C0028F9D1A869E61827
:100C7000C01AA861286A184428622846FFF7F4FBC6
:100C800004E0D5E9012114F8010B9047B442F8D3F0
:100C90002846FFF7FFFB70BD2DE9F0470D4699464A
:100CA0009246044600F124080168880604D5E069EC
:100CB00021F01001216000E00120A84201DD471B66
:100CC00000E00027A1697A1902EB0900081AA06167
:100CD0002078C00602D42046FFF7C6FB002608E0B5
:100CE000D4E901211AF806009047206A401C761CBE
:100CF00020624E45F4DB2078C0060AD52046FFF777
:100D0000B3FB06E0D4E9012130209047206A401C63
:100D10002062381EA7F10107F4DC07E0D4E90121C5
:100D200018F805009047206A401C2062281EA5F193
:100D30000105F3DC2046FFF7ADFB2078000602D565
:100D40000220BDE8F0870120FBE711680268006A15
:100D5000530501D508700AE0D30501D5088006E0E7
:100D6000130603D5C217C1E9000200E008600120A4
:100D70007047000001694A1C02610878704700B59D
:100D80008FB0CDE901310021059105497944CDE9C4
:100D9000031011466846FFF715FC0FB000BD0000B8
:100DA000E5FFFFFF0A6802F8010B0A6070470000C8
:100DB000074B70B50D467B44FFF7E1FF044628461C
:100DC00000F094FD10B14FF0FF3070BD204670BDB3
:100DD0006F5B00002DE9FF5F15468A460446DFF889
:100DE000AC80F8440027D8E900103E46CDE9001059
:100DF00010E03AF816106A4602A800F07BFD411C8C
:100E000007D02178890603D5E269391891420DD8B7
:100E10000744761C2078800602D5E069B84205DDDB
:100E2000AE42E6DB3AF816000028E2D1A069C01B0A
:100E3000A0612046FFF718FBD8E90010CDE90010AB
:100E4000002017E03AF818106A4602A800F052FD98
:100E5000B0F1FF3F81460BD000250DF1080B05E0F6
:100E6000D4E901211BF8050090476D1C4D45F7D3CF
:100E700008F10100B0428046E4DB206A3844206279
:100E80002046FFF707FBBDE8FF9F00006E940000BF
:100E90002DE9F0418046D21D22F007020025D2E95B
:100EA0000002F52915A614D0011E72F1000106DA20
:100EB0000023D0EB030063EB020211A608E0D8F890
:100EC00000108B0701D50FA602E0490701D50EA639
:100ED00001251146002408F1240704E000F0C4F8BD
:100EE00030323A55641C50EA0102F7D12B463246A3
:100EF00021464046BDE8F041FFF7CEBE00000000AD
:100F00002D0000002B0000002000000030B4002164
:100F100000F1240408E002F00705D208303542EA67
:100F20004372DB086554491C52EA0305F3D1046897
:100F3000002310A2250708D504F020040C4304D098
:100F4000C46901230CA2641EC46130BCFFF7A4BEB7
:100F500010B5044621461068FFF76CFE0246204695
:100F6000BDE810400023D1E7D21D22F00701D1E9EE
:100F70000023CBE700000000300000003A2800D238
:100F8000303820F02002412A01D3A2F137008842F4
:100F900001D34FF0FF3070470268114413780160AD
:100FA00018467047D1600549794451610449794434
:100FB000116200211161114600F0DEBAEDFFFFFF62
:100FC00041010000426842B1016811F8013B23B1C0
:100FD000521EC0E90012184670470121C160881EE8
:100FE000704742685AB1C368016843B983688B424D
:100FF00005D0491E521CC0E90012002070474FF076
:10100000FF30704710B5203AC0F00B80B1E818509F
:10101000203AA0E81850B1E81850A0E81850BFF4E2
:10102000F5AF5FEA027C24BFB1E81850A0E8185081
:1010300044BF18C918C0BDE810405FEA827C24BFD5
:1010400051F8043B40F8043B08BF7047D20728BF63
:1010500031F8023B48BF11F8012B28BF20F8023BB2
:1010600048BF00F8012B704730B5B0F10A024FEAD3
:10107000900E71F100034EEA817EB0EB0E0061EB41
:1010800091014FEA101E4EEA017E10EB0E0041EB7B
:1010900011114FEA102E4EEA016E10EB0E0041EBDB
:1010A00011214FEA104E4EEA014E10EB0E0041EBBB
:1010B0001141401841F100014FEAD00040EA41706F
:1010C0004FEAD10110EB80054FEA810444EA9074A5
:1010D00044EB01046D1944EB0404521BA3414FF08F
:1010E000000348BF0A3200D530BD401C41F1000169
:1010F00030BD10B5044600F043FC0068005D00F010
:10110000010010BD70472DE9FF4F0C461E464FF001
:10111000FF378BB0D2E90001DDF860800A908A4683
:10112000C1F30A5505B93D46002108464FF00000BD
:10113000BAF1000F00F4400005DA00EB80004FF434
:10114000400101EA50004FEA9059B9F1010F00DD6A
:10115000B9460A9850EA4A000ED044F61050A5F25B
:10116000FF3545432F14B8F1000F1ED07542291EDC
:101170001EDDC9F100021CE0B8F1010F4FF00000C4
:1011800001D0302103E0F24305E02154401CB0427D
:10119000FBDB30460022002121540B99C1F8088066
:1011A000C1E900200FB0BDE8F08FBD1B6D1CDEE76C
:1011B0004A4600DA694206A800F02EFC06AB93E826
:1011C000070003AB83E8070050460A9900F09CFC37
:1011D0008DE80700A0F500501F3800900398002DFF
:1011E00009DD42F21F014A46084403A903906846FC
:1011F00000F0FBFE08E0A0F500504A461F3803A9A6
:101200000390684600F005FF8DE807000004000C1D
:1012100003D04FF0FF30410800E01046B8F1000F56
:1012200003D00022009215461EE0751E05D4FFF77C
:101230001BFF303262556D1EF9D5B34601220843BB
:1012400002D000227F1C04E02078302801D1002247
:101250007F1E002A099786D01DE0112D07DAFFF7BF
:1012600003FF303262556D1C50EA0102F5D108438C
:1012700002D00098C8B10EE00021681E05E0235C92
:10128000625C63542254401E491C8142F7DBAB462A
:10129000A81B401E0990002004F80B000B98099A27
:1012A000C0F80880C0E9002B7CE711264FF0000849
:1012B00059E72DE9F04F88460446D21D22F0070178
:1012C00091B0D1E90001CDE90A0102F08FFC02469C
:1012D0000B98C00F01D02D2007E02068810701D5B1
:1012E0002B2002E0202101EAC000032A099001D04E
:1012F000072A05DB03464146204600F04DFB0BE183
:101300002078800601D5E06900E00620B8F1650F7D
:10131000814606D0B8F1660F18D0B8F1670F70D1CA
:1013200031E00020B9F1110F009001DB112301E041
:1013300009F101030AAA01A90CA8FFF7E4FEDDE9FF
:101340000C70002609F10105834647E001204B4659
:1013500000904FF000470AAA01A90CA8FFF7D3FE9E
:10136000DDE90DB00C995D46002610B909F10100C8
:101370000D18B9EB050003D4C0F1FF3609F10105E2
:10138000A5EB09002BE0B9F1010F01DA4FF00109DB
:101390000020B9F1110F0090484601DD112300E053
:1013A00003460AAA01A90CA8FFF7ADFEDDE90C70FF
:1013B0004D4600268346207800070AD4AB4500DA64
:1013C0005D4601A8012D04DD411911F8011C3029E9
:1013D00007D04F4502DA17F1040F04DA01208246E4
:1013E0000FE06D1EEEE7002F02DCED1B3E4403E034
:1013F000781CA84200DD7D1CB81B00F1010A4FF0EB
:1014000000472078000703D4AA4501DB4FF0FF3ADC
:101410000021B7F1004F0DF143088DF8431024D09F
:1014200002202B23002F01DA7F422D230A21021EE6
:10143000A0F1010000DC5FB197FBF1FC97FBF1F23A
:1014400001FB1C7C17460CF1300C08F801CDEEE7CF
:10145000A8F1010003702188090501D5452100E0AC
:101460006521A0F1010800F8011C09980FA9A1EB62
:101470000807FF1D00B10120411901EBEA70A169C5
:101480003844081A401EA0612078C00602D42046C5
:10149000FEF7EAFF099828B1D4E901219047206AB4
:1014A000401C20622078C00622D52046FEF7DCFFD3
:1014B0001EE0002E04DBB34502DD01A8805D00E0E4
:1014C0003020D4E901219047206A401C2062761C1C
:1014D000AAF101005FEA000A0AD100F059FAC068D7
:1014E0000168405CD4E901219047206A401C2062D9
:1014F000281EA5F10105DCDC07E0D4E9012118F87C
:10150000010B9047206A401C2062381EA7F101079A
:10151000F3DC2046FEF7BEFF032011B043E610B512
:10152000436913B1AFF3008001E0FFF78CFB0120AA
:1015300010BD127800F124010A7000224A700122C5
:10154000EDE711684FF0FF32E9E710B5436913B1D9
:10155000AFF3008001E0FFF73DFC012010BD1288D1
:1015600000F1240182840022C2840122EDE7116887
:101570004FF0FF32E9E700002DE9F34F4FF0000A8A
:101580000C4656468DB001200C9001F10C000B90DA
:1015900062690B980121904705002DD0252D2CD094
:1015A000216A8847C0B162690B9801219047216A7E
:1015B00088470028F7D16269411E0B98904700E0E8
:1015C000761CA1690D988847216A88470028F7D1C1
:1015D000E1690D988847DBE7A1690D988847A84223
:1015E000074601D1761CD3E7E1690D9888477F1C37
:1015F00002D1BAF1000F6FD06BE162690B9800273E
:101600003D46394690472A2804D162690B9801214A
:1016100090470125DFF8D08262690B98012190473D
:10162000A0F130010A290AD24745E5DC07EB870122
:1016300000EB4107303FDFD445F01005ECE7E90649
:1016400001D46FF000476C280AD04C2814D06828C9
:1016500015D06A280DD074281CD07A281AD01DE025
:1016600062690B98012190476C2802D045F004056F
:1016700014E045F002050DE045F020050AE062693E
:101680000B9801219047682802D045F0080505E035
:1016900045F4006562690B9801219047C4E9015740
:1016A00065283DD019DC58287AD00CDC452837D085
:1016B00004DC252826D041289ED131E046282FD0B1
:1016C000472899D12CE05B2877D0612828D063285F
:1016D0007CD0642823D15AE0F6E06F2848D008DC9B
:1016E00066281DD067281BD0692821D06E2816D106
:1016F00027E0702845D0732868D0752847D078280F
:101700000DD14DE0A1690D988847252805463FF485
:1017100069AFE1690D9888476D1C3FF46AAFD8E066
:101720000D9923466A466FF00100AFF30080C5E0D3
:1017300045F0400023464FF000026060A80736D411
:101740003EE0E8077FF447AF2068011D2160006894
:10175000290501D506701BE7290701D5068017E783
:10176000A90703D5F117C0E9006111E706600FE78B
:1017700045F0400023464FF008026060A80716D4E9
:101780001EE040F60E0125EA0100606016E045F01B
:10179000400023464FF00A026060A80707D40FE01C
:1017A00045F040006060A80708D5234610220D9937
:1017B0006FF00100AFF3008080E007E010222346C5
:1017C0000D996FF00100FEF7DFFF77E04FF00009A1
:1017D00063284F46C8464B46CB4602D05B2806D00E
:1017E00038E0E80601D40120A060012732E06269F8
:1017F000D4F80CB00B98012190475E2807D14FF028
:10180000010949466269D4F80CB00B9890472169E8
:1018100039B900210A4603AB43F82120491C0829A5
:10182000FADBD8B3216949B308F1010862690B9862
:10183000012190475D28F4D1B9F1000F09D00020B3
:1018400003A951F82020D24341F82020401C082849
:10185000F7DB03AB2069002820794FEA40701ED0E7
:101860005B462246CDF80080CDE901970D9900280E
:101870006FF0010020DAAFF300801FE0C11703AA68
:1018800000EBD1614B1121F01F0102EB8302411AE1
:1018900013680120884003431360C7E719E00D99DE
:1018A000224600286FF00100009702DAAFF30080B3
:1018B00004E0FFF70FF801E0AFF3008000280ADA38
:1018C000401C06D10C9820B14FF0FF300FB0BDE89E
:1018D000F08F5046FAE7E90701D10AF1010A064400
:1018E00000200C9054E60000CCCCCC0C007B00F027
:1018F0008000704770B516460C46054600F040F86B
:10190000036893F80101012806D0FF2C0FD8185D59
:1019100068B101202C7070BDD3F807013246214612
:1019200003F2071303442846BDE8704018474FF000
:10193000FF3070BD754600F0E3F8AE46050069461D
:10194000534620F00700854618B020B5FEF750FD3D
:10195000BDE820404FF000064FF000074FF00008B0
:101960004FF0000B21F00701AC46ACE8C009ACE831
:10197000C009ACE8C009ACE8C0098D46704700005A
:1019800010B500F005F8001D10BD00BF657E000019
:1019900000487047543D01202DE9F0411F460446A0
:1019A00003260168072A01F4006004DB08B116A5CC
:1019B00005E016A503E008B115A500E015A521F086
:1019C00010002060A069C01EA0610FB1401EA06180
:1019D0002046FEF749FD4FB1D4E901213846904732
:1019E000206A401C2062C01C206206E0206AFAE7E0
:1019F000D4E9012115F8010B9047761EF8D2204654
:101A0000FEF748FDBDE8F0814E414E006E616E006C
:101A1000494E4600696E66002DE9F047814616463C
:101A20008AB0334878440DC88DE80D0030487844BA
:101A3000801C03AC0DC884E80D0041F69B300844BF
:101A4000372190FBF1F290FBF1F5A5F1800501FB48
:101A500012041B3C02D56442012000E00020DFF8A4
:101A600090A080460027FA44AAF1BE0A0DE0E007E4
:101A700009D03246684607EB47010AEB810100F0C6
:101A8000C8FA8DE8070064107F1C002CEFD1184FB6
:101A90007F44AC3F18E0E80714D007EB04100DF1C9
:101AA000180A90E80E008AE80E00C068F04201D1E2
:101AB00098190890324606A903A800F0AAFA03ABC9
:101AC00083E807006D10641C002DE4D1324669469E
:101AD000B8F1000F03A802D000F087FA01E000F08F
:101AE00098FAC9E90001C9F808200AB0BDE8F087F2
:101AF000B08800000446AFF300802046FEF703FCE8
:101B000000487047343D01205FEA400C08BF91F067
:101B1000000F4FEA8C234FEAC12243EA51514FEAAA
:101B20001C5018BF00F5F0404FEA300018BF41F0DC
:101B300000415FEA6C5C00F02980BCF1FF3F08BF08
:101B400040F080407047130C06BF12044FF0100C99
:101B50004FF0000C130E04BF12020CF1080C130F0F
:101B600004BF12010CF1040C930F04BF92000CF19E
:101B7000020CD30F04BF52000CF1010C11464FF0C0
:101B80000002A0F11F00A0EB0C00704711F0004F05
:101B900008BF704731F000413FF4D5AF0B0C06BFD2
:101BA00009044FF0100C4FF0000C0B0E04BF09029B
:101BB0000CF1080C0B0F04BF09010CF1040C8B0F86
:101BC00004BF89000CF1020CCB0F04BF49000CF1DB
:101BD000010CCCF12003A0EB0C0022FA03F302FA73
:101BE0000CF241EA030100F10100704720F07F4C44
:101BF00080EA030023F07F47ACEB070303F57C5337
:101C000000F0004003F1FF032DE980494FEA154B36
:101C100009B44FEA144325EA0B4E24EA03480FF2B5
:101C2000042606EB132749083E785FEA320203FBDD
:101C30000667C7F5000707FB06F64FEA54374FEA79
:101C4000D64606F1020607FB066CCCF1005C4FEAB3
:101C50001C472CEA074C07FB06F40CFB06F504EBCB
:101C600015464FEA961634BF00204FF000404FEA69
:101C7000D13706FB07FC4FEA1C4C0CFB0BF7D21BC1
:101C800003FB0CF761EB07010CFB0EF7B0EB074011
:101C900072EB17420CFB08F734BFA2EB0742B2EB22
:101CA000074261EB17414FEA0C444FEA910706FBEC
:101CB00007FC4FEA1C4C0CFB0BF7B0EBC74072EB78
:101CC000573203FB0CF734BFA2EBC742B2EBC7425B
:101CD00061EB57310CFB0EF7B0EBC70072EB57729C
:101CE0000CFB08F734BFA2EBC702B2EBC70261EBF3
:101CF0005771039F4FEA816141EA921104EBCC04D2
:101D00004FEAD1374FEA826206FB07FC42EA9012A3
:101D10004FEA80604FEA1C4C0CFB0BF7D21B03FB15
:101D20000CF761EB07010CFB0EF7B0EB074072EB11
:101D300017420CFB08F734BFA2EB0742B2EB074295
:101D400061EB17414FEA8C554FEA910704EB9C2455
:101D500006FB07FC4FEA1C4C0CFB0BF7B0EBC74033
:101D600072EB573203FB0CF734BFA2EBC742B2EB66
:101D7000C74261EB57310CFB0EF7B0EBC70072EBBB
:101D800057720CFB08F734BFA2EBC702B2EBC702D5
:101D900061EB577115EB4C254FEA816141EA9211D5
:101DA0004FEA82624FEAD13742EA901206FB07FC03
:101DB00044F100044FEA80604FEA1C4C0CFB0BF727
:101DC000D21B03FB0CF761EB07010CFB0EF7B0EB2A
:101DD000074072EB17420CFB08F734BFA2EB074237
:101DE000B2EB074261EB174115EB1C154FEA81314D
:101DF00041EA92414FEA823242EA90424FEA803011
:101E00004FEA0C7644F1000448EA03434EEA0B48DB
:101E10004FF0000EB2EB080C71EB030724BF6246D3
:101E200039464EEB0E0E4FF0000B0018524149415F
:101E30004BEB0B0BB2EB080C71EB03077BF1000BC8
:101E400024BF624639464EEB0E0E4FF0000B0018D1
:101E5000524149414BEB0B0BB2EB080C71EB030702
:101E60007BF1000B24BF624639464EEB0E0E51EA61
:101E7000020718BF46F0010616EB0E7655F1000278
:101E800054F1000103D5BDE88901BDE80088BDE833
:101E90008901BDE80048B619524141EB0101A3F1A7
:101EA0000103704780807F7E7D7C7B7A79787776AE
:101EB00076757473727171706F6E6E6D6C6C6B6A27
:101EC0006A696868676666656464636362616160C5
:101ED000605F5F5E5E5D5D5C5C5B5B5A5A59595842
:101EE00058575756565555555454535352525251AC
:101EF000515050504F4F4F4E4E4D4D4D4C4C4C4B02
:101F00004B4B4A4A4A494949484848474747474648
:101F10004646454545444444444343434342424284
:101F200042414141002B26D4770021D01CB54FEA15
:101F3000370703B44FF010004FF010014FF00000CE
:101F40000FBCBDE810400BF1010BBBF1010F08BF46
:101F50005FEA170722BF12F1010211F101014FF0F0
:101F6000004143F1000300F0004043EA00007047E5
:101F7000F9D35708DAE746EA064613F1400F4FEA6D
:101F800016461FDD13F1200FDFBF16430A4600215E
:101F900020335B42C8D0C3F1200746EA064602FA66
:101FA00007F74FEA164646EA0706C3F1200722FA6A
:101FB00003F201FA07F721FA03F14FF0000342EAB6
:101FC0000702B1E746EA020646EA06464FEA164627
:101FD00046EA0106BCBF46EA0646360C4FF000034F
:101FE0004FF000024FF000019EE72DE9C0489346F4
:101FF00030B491E8380007C831EA400C48BF34EAF1
:10200000430C03D5FFF7F2FDFFF78CFFF0BCBDE8F2
:1020100000882DE9C048934630B491E8380007C8DD
:1020200010F0804F08BF13F0804F03D100F005F887
:10203000FFF778FFF0BCBDE8008820F07F4780EA1A
:10204000030023F07F4C07EB0C03A3F57C5300F057
:102050000040A3F1FE0392F0000F00F0B38095F072
:10206000000F00F077802DE901494FEA11404FEA57
:10207000144621EA004800FB06FC24EA064708FB58
:1020800006F607FB08F800FB07F718EB06484CEBD1
:10209000164C4FEA124B18EB07484FEA15464CEB2B
:1020A000174022EA0B4E0BFB06FC25EA06470EFB07
:1020B00006F607FB0EFE0BFB07F71EEB064E4CEB7E
:1020C000164C4FF000061EEB074E4CEB174B18EB6F
:1020D0000B0840F1000018EB0E0B58EB000840F124
:1020E00000008F1A4FF000013CBFC943661B14BFAC
:1020F000B5EB040C00213CBFC943F61B4FEA174463
:102100004EEA8E0E27EA04454FEA1C4704FB07629D
:102110002CEA074C05FB07F70CFB05F604FB0CFC4F
:1021200016EB074642EB174216EB0C4642EB1C42FD
:102130001BEB060658EB0202414146EA9E0601D51A
:10214000BDE80189B619524141EB0101A3F1010338
:10215000BDE801894FEA14454FEA114724EA0546D4
:1021600021EA074C05FB07F406FB07F70CFB06F119
:1021700005FB0CFC11EB074144EB17444FEA1247F7
:1021800011EB0C4144EB1C4422EA074C05FB07F21F
:1021900006FB07F70CFB06F605FB0CFC16EB0746E7
:1021A00042EB174216EB0C4642EB1C456A1854F101
:1021B000000148BF7047B619524141EB0101A3F13C
:1021C0000103704795F0000F37D04FEA11424FEAF4
:1021D000144721EA024624EA074C02FB07F106FBFA
:1021E00007F70CFB06F402FB0CFC14EB074441EB75
:1021F00017414FEA154714EB0C4441EB1C4125EA0B
:10220000074C02FB07F506FB07F70CFB06F602FB83
:102210000CFC16EB074645EB174516EB0C4645EB59
:102220001C42121951F1000148BF7047B6195241C2
:1022300041EB0101A3F1010370474FEA14454FEA56
:10224000114724EA054621EA074C05FB07F106FB86
:1022500007F70CFB06F24FF0000605FB0CFC12EB37
:10226000074241EB174112EB0C4251EB1C4148BFB6
:102270007047921841EB0101A3F10103704710B5BB
:10228000142001F015F9800705D10321BDE81040A5
:10229000142001F03FB910BDFEE770B50C460546AD
:1022A00001F006F920EA04012846BDE8704001F07B
:1022B00087BC704710B55020EFF3118480F311886C
:1022C000BFF34F8FBFF36F8F012000F083F8012819
:1022D00008D1064800220121006806F001FC012017
:1022E00000F072F884F3118810BD00002C0000206B
:1022F00010B55020EFF3118480F31188BFF34F8F96
:10230000BFF36F8F042000F065F8012808D106485C
:1023100000220221006806F0E3FB042000F054F8DC
:1023200084F3118810BD00002C00002010B550204F
:10233000EFF3118480F31188BFF34F8FBFF36F8FDA
:10234000082000F047F8012808D10648002204219F
:10235000006806F0C5FB082000F036F884F3118809
:1023600010BD00002C00002010B55020EFF31184A8
:1023700080F31188BFF34F8FBFF36F8F102000F0F1
:1023800029F8012808D1064800220821006806F033
:10239000A7FB102000F018F884F3118810BD00008E
:1023A0002C00002010B5402000F014F8002807D0C1
:1023B000044901204860BDE81040402000F004B806
:1023C00010BD000058060020014908607047000059
:1023D000143C0140034A0146002012680A4200D022
:1023E00001207047143C014030B51A4A83790168D6
:1023F00053B313688B431360111D0B680468A34328
:102400000B60017911440B68046823430B60114B86
:10241000083319680468A14319601C1D2168056808
:10242000A94321604179102905D011440A68006848
:1024300002430A6030BD19680268114319602168BF
:1024400000680143216030BD0079104402688A436E
:10245000026030BD003C0140F0B5002201274FF082
:10246000030C0B6807FA02F52B40AB422CD106682F
:1024700053000CFA03F4A64306600E79D0F800E08E
:102480009E4046EA0E0606600E79012E01D0022E0D
:1024900012D18668A64386604E79D0F808E09E4047
:1024A00046EA0E0686604668AE43466045688E7909
:1024B0009640B6B235434560C568A543C560CC7942
:1024C0009C40C3681C43C460521C102AC9D3F0BD91
:1024D0004B07DB0E9A40C90810B500EB8100016A7A
:1024E0000F249C40A1430162016A1143016210BDA7
:1024F0000246002052690A4200D001207047018341
:10250000704700002DE9F041474C0027C4F8BC7229
:102510000126C4F88462454DC5F8A062C5F8A862DA
:10252000022003F085FBD4F80002E8B3D5F81C02C2
:10253000D8B3D5F82402C8B3D5F82C02B8B3C4F880
:10254000BC62C4F88472C5F8A062C5F8A862022013
:1025500003F06EFBD4F8000250B3D5F81C0240B370
:10256000D5F8240230B3D5F82C02C0B3C4F8BC624D
:10257000C4F88462C5F8A072C5F8A862022003F00E
:1025800057FBD4F8000258B3D5F81C0248B3D5F86D
:10259000240238B3D5F82C0278B3C4F8BC62C4F86E
:1025A0008462C5F8A06206E01DE01EE01FE020E0A6
:1025B00021E023E024E0C5F8A872022003F038FBF4
:1025C000D4F8000240B3D5F81C0238B3D5F8240281
:1025D00030B3D5F82C0228B34E20BDE8F08111E0CD
:1025E00012E013E014E03120F7E73420F5E737205C
:1025F000F3E72A20F1E73220EFE70BE03520ECE7A4
:102600003820EAE73020E8E73320E6E73620E4E741
:102610003920E2E72320E0E74120DEE74220DCE743
:102620004320DAE74420D8E70080414200004242DC
:1026300000260F4C0F4D4FF000780127C4F8A4621C
:10264000C4F8A862C5F8B462C5F8B862414640460D
:10265000401EFDD2C4F8A472C4F8A872C5F8B472C2
:10266000C5F8B872491EFDD203A0FDF7DBFEE5E711
:102670000080424200004242486172644661756CCB
:10268000743A506C6561736520636865636B2063A1
:102690006F6465A3AC666F72206578616D706C6560
:1026A00020737461636B2E2E2E0D0A0070B501200D
:1026B00005F05EFC0A4C0120C4F88802C4F88402CC
:1026C000052004F5217403F0CFFA002525600520CC
:1026D00003F0CAFA6560BDE87040052003F0C4BA93
:1026E0000080404270B5012005F042FC084C0125F5
:1026F000C4F888520020C4F88402052004F521742F
:1027000003F0B2FA2560BDE87040052003F0ACBAD2
:102710000080404210B5002005F02AFC084C012042
:10272000C4F88802052004F5227403F09DFA54F8D9
:10273000840C00202060BDE81040052003F094BA0E
:10274000008040427CB50546082100240846FFF77A
:10275000A4FD80210E20FFF7A0FD00210D2001F037
:102760002FFA932028702020687001A82B46009033
:10277000022219460C2000F0B7F806000AD1002208
:10278000A85C521C4440D2B2042AF9D3A85CA042EF
:1027900000D0022680210E2000F0BCFE30467CBD19
:1027A00010B500F055F800F037F88D212A2001F01F
:1027B00007FA3E212B2001F003FA32212D2001F0EF
:1027C000FFF900212C2001F0FBF94021152001F038
:1027D000F7F93D21112001F0F3F90021012001F06A
:1027E000EFF9BDE81040FFF74ABD7CB50C46054641
:1027F00007210D2001F0E4F9257001A8234600907F
:10280000012219460C2000F06FF818B9BDF8041029
:10281000102900D002207CBD70B50C4C0125C4F8F5
:10282000AC52284604F52B7403F01EFA00202060F9
:10283000284603F019FA2560284603F015FABDE88A
:1028400070400F21012001F0BBB90000000041429F
:102850002DE9FC410121042000F044FB0121082066
:1028600000F040FB01258DF8045000244FF4046073
:102870008DF806400226184F00908DF805608DF8FF
:10288000074069463846FFF7E7FD8DF80450C02041
:102890008DF8064000908DF805608DF80740694678
:1028A0000E48FFF7D9FD8DF8044028028DF8064048
:1028B00000908DF805608DF8074069463846FFF7AF
:1028C000CBFD0748C0F89852C0F89C420548C0F8B4
:1028D0009852BDE8FC81000000080240000C024054
:1028E00000804142000041422DE9FF5F0025DDF8F4
:1028F00038B017468A4680464FF002092E460C280B
:1029000005D0B8F10E0F04D11225102601E077256D
:10291000302645F08001022001F052F98021042088
:10292000FFF7BBFC80210A2000F0F4FD002101200C
:1029300001F046F9002406E01AF80410092001F01D
:102940003FF9641CA4B2BC42F6D34146012001F019
:1029500037F9B8F10C0F03D180210D2000F0DAFD1A
:1029600042F21074042000F0A3FD641E2404074604
:10297000240C03D0F80701D13742F3D080210D2079
:10298000FFF78BFC8CB3062000F092FD10F01B0FBC
:1029900001D0022028E0B8F10C0F24D10A2000F069
:1029A00087FD05460C2000F083FD10F007004FEA7C
:1029B000C50104D008390844ABF8000001E0ABF8C9
:1029C000001025B1122D00D91225002409E001259F
:1029D000FBE7092000F06CFD014603980155641CDB
:1029E000A4B2AC42F5D30020814680210C2001F036
:1029F000E7F80021012001F0E3F804B04846BDE803
:102A0000F09F000070B58AB00121102000F06AFA32
:102A10004FF40050059002208DF8180000248DF826
:102A20001A401B4D8DF81B408DF8194005A928460A
:102A3000FFF712FD0121084600F06CFAC72008904C
:102A400044F29F10ADF81C00124EADF81E4007A9CD
:102A5000304600F0A3FE6020ADF800000120ADF884
:102A600002000F200290ADF80C406946304600F09D
:102A700055FE0121304600F028FE0121304600F0CD
:102A80002EFE01220D212846FFF722FD0AB070BD5F
:102A900000100240000001402DE9FC410121082006
:102AA00000F020FA0121102000F01CFA012448F265
:102AB00002008DF80440002500908DF80650032098
:102AC0008DF80500104E8DF8075069463046FFF727
:102AD000C3FC4FF4A0600D4F009069463846FFF7E5
:102AE000BBFC8DF807408DF80450694630460094D1
:102AF000FFF7B2FC4FF42860009069463846FFF7B4
:102B0000ABFCBDE8FC810000000C0240001002405C
:102B1000FEE7704700F01F0201219140400980004C
:102B200000F1E020C0F88011704700F01F02012181
:102B300091404009800000F1E020C0F8001170478A
:102B400030B50F23C27801780125FAB1144A126812
:102B500001F1E02102F4E062C2F5E062C2F3072273
:102B6000C2F10404D3404278A24084781C4014434C
:102B7000220181F80024007800F01F018D404009F7
:102B8000800000F1E020C0F8005130BD01F01F00CE
:102B900085404809800000F1E020C0F8805130BD38
:102BA0000CED00E00249084302490860704700004C
:102BB0000000FA050CED00E070B50025002105F1DC
:102BC000B00000F082F90021084600F07EF90021F3
:102BD000102000F07AF900240121002000F075F99E
:102BE000641CE4B2802CF7D36D1CEDB2082DE5D344
:102BF00070BD10B500218D2000F067F90021102074
:102C000000F063F90021BDE81040AE2000F05DB98E
:102C100010B500218D2000F058F90021142000F09B
:102C200054F90021BDE81040AF2000F04EB92DE965
:102C3000F0471F4690460E4682460025DDF820905C
:102C400011E03146504600F0A3F8544607E019F869
:102C5000050001216D1C00F038F9641CE4B2444504
:102C6000F5D3761CF6B2BE42EBD3BDE8F087000088
:102C70001CB50121022000F035F906200124009046
:102C80008DF8044000208DF8060003218DF8051012
:102C90008DF8070069463C48FFF7DEFB3B48C0F86B
:102CA0008442C0F88842C82002F0C2FF0021AE2052
:102CB00000F00BF90021084600F007F90021102070
:102CC00000F003F90021402000F0FFF80021B020BF
:102CD00000F0FBF80021812000F0F7F80021FF2030
:102CE00000F0F3F80021A12000F0EFF80021A62069
:102CF00000F0EBF80021A82000F0E7F800213F20C9
:102D000000F0E3F80021C82000F0DFF80021D32014
:102D100000F0DBF80021084600F0D7F80021D520AC
:102D200000F0D3F80021802000F0CFF80021D82057
:102D300000F0CBF80021052000F0C7F80021D920D1
:102D400000F0C3F80021F12000F0BFF80021DA20E4
:102D500000F0BBF80021122000F0B7F80021DB20C2
:102D600000F0B3F80021302000F0AFF800218D20F2
:102D700000F0ABF80021142000F0A7F80021AF20EC
:102D800000F0A3F81CBD0000000402400080404297
:102D900010B50A460446002102F1B00000F095F893
:102DA000102040EA1410002100F08FF804F00F000A
:102DB000BDE81040002100F088B800002DE9F04186
:102DC00015460E460746FFF7E3FF0F48002400EBC9
:102DD00085150121285D00F078F8641CE4B2102C00
:102DE000F7D3761CF1B23846FFF7D2FF002428193A
:102DF000012190F8200000F068F8641CE4B2102C67
:102E0000F5D3BDE8F0810000100300202DE9F0416A
:102E1000203A00240F468046D5B27F2803D90020EF
:102E20008F1C8046FFB2102B394610D0FFF7B0FF41
:102E3000164905EB450001EB40050121285D00F036
:102E400044F8641CE4B2062CF7D3BDE8F081FFF728
:102E50009FFF0F4E04EB05100121305C00F035F8A8
:102E6000641CE4B2082CF5D37F1CF9B24046FFF78E
:102E70008FFF002404EB051030440121007A00F09C
:102E800024F8641CE4B2082CF4D3DEE7D0990008DF
:102E9000F89B00082DE9F041984617460E46044677
:102EA00000250DE0434631462046FFF7AFFF0834CA
:102EB000E4B2782C02D90024B61CF6B26D1CEDB237
:102EC0007A5D002AEED1BDE8F081C0B209B100F010
:102ED00060BE00F047BE0000014908627047000074
:102EE00000000E42044A0029116801D0014300E0AD
:102EF000814311607047000030380240044A0029C5
:102F0000116801D0014300E0814311607047000067
:102F100040380240044A0029116801D0014300E012
:102F200081431160704700004438024070B5204B67
:102F30001968204C11F00C0104D06610042903D04C
:102F4000082903D004601BE0066019E0184A121F2C
:102F50001168C1F38055116801F03F0115B1B6FB4E
:102F6000F1F101E0B4FBF1F114681268C4F38814C4
:102F70006143C2F30142521C5200B1FBF2F1016005
:102F800019680F2202EA11110B4A545C0168E140F2
:102F900041601C68072505EA9424145D21FA04F4B5
:102FA00084601B6805EA5333D25CD140C16070BDB8
:102FB000083802400024F400A40600200246002045
:102FC000510901290BD002290CD00849096802F0E7
:102FD0001F02012393400B4200D001207047034998
:102FE0007439F3E70149091FF0E700007438024023
:102FF0000149086070470000800E4742014908609F
:10300000704700003C0E4742C0F30121032907D15D
:10301000074B1968074A21F4F81102400A431A6065
:10302000034968310A68C0F30B0002430A60704725
:1030300008380240FFFCFF0F010901EB810100F09D
:103040000F0000EB4100C0B27047002103E0491CB3
:103050000A38C9B2C0B20A28F9D2090740EA116099
:1030600070470000C0F30F1040F08000C1430348D8
:10307000026802F080021143016070470C28004092
:1030800008B50D49002000900868400612D44FF0A2
:10309000FF3008608B130868009A00F04000521C53
:1030A00000929A4201D00028F5D00868400601D469
:1030B000002008BD012008BD0C280040024801681E
:1030C00021F08001016070470C280040020010B51B
:1030D0000F480C4601680F4801EA00014FEA114011
:1030E000E070C1F30423637001F03F03A370C1F3E8
:1030F000423121700AD1FFF79FFFE0706078FFF73F
:103100009BFF6070A078FFF797FFA07010BD0000D4
:10311000042800403FFFFF000B4A0021126802F024
:103120000403094A383A126803EAD03302401A43CA
:10313000064B1B6803EA101003D00004000C00D0FB
:103140000121084670470000402800400C2800403C
:10315000020010B510480C460168104801EA000151
:10316000C1F305402070C1F30623637001F07F03B3
:10317000A3704FF0400303EA1141E1700AD1FFF759
:103180005BFF20706078FFF757FF6070A078FFF753
:1031900053FFA07010BD0000002800407F7F7F001B
:1031A00030B50E4DCA222A6053222A600B4C0B4BBD
:1031B0001C3C1C33002920F00402216800F00400AC
:1031C00004D0114321601968014303E09143216059
:1031D000196881431960FF20286030BD2428004011
:1031E00070B5124D04460026CA202860532028607E
:1031F000FFF746FFA8B10D481C38016821F04001D7
:10320000016001682268114301600848A168143810
:1032100001600168A28841EA02410160FFF74EFFA8
:103220000126FF202860304670BD000024280040A1
:1032300070B50C460026010060780FD0FFF7FCFE49
:10324000A078FFF7F9FEA078E17840EA01456078C0
:103250002178000240EA4130054315E0C10603D55C
:1032600020F010000A306070E078FFF7EEFE0504F1
:103270006078FFF7EAFE45EA0025A078FFF7E5FE53
:103280000543207845EA40350D4CCA202060532084
:103290002060FFF7F5FE78B10A480540084820385D
:1032A0000560FFF70BFF06481C380068800602D453
:1032B00000F098F800B10126FF202060304670BD74
:1032C000242800403FFFFF002DE9F0410C46002676
:1032D000234F01002078396832464FEA416104D01B
:1032E000002930DAFFF7A8FE2EE0002900DBE270AB
:1032F000FFF7ABFE05046078FFF7A7FE45EA00255F
:10330000A078FFF7A2FE0543E07845EA0045144C9B
:10331000CA201C34206053202060FFF7B1FE68B142
:10332000104805400E4808380560FFF7C7FE3868AA
:10333000800602D400F056F800B10126FF2020607C
:103340003046BDE8F081E270A078217840EA01457E
:103350006078E178000240EA01400543D7E70000C9
:10336000082800407F7F7F000549CA220A60532257
:103370000A60034A103A1060FF200860704700009E
:103380002428004038B5002000905020EFF311842D
:1033900080F31188BFF34F8FBFF36F8F4FF48045D9
:1033A0002846FFF7B9FE01280BD10C486A461021C8
:1033B000006805F095FB2846FFF754FE2802FFF74A
:1033C00003F8009838B106494FF080500860BFF309
:1033D0004F8FBFF36F8F84F3118838BD2C0000200E
:1033E00004ED00E018B50020104B0090CA201860D2
:1033F000532018600D491839086820F0A0000860B3
:103400004FF400340868009A00F02000521C00922B
:10341000A24201D00028F5D00868800601D501201D
:1034200000E00020FF21196018BD000024280040A2
:10343000084ACA2111605321116006491C390B68E2
:1034400023F007030B600B6803430B60FF20106041
:10345000704700002428004018B50021134B00914C
:10346000CA2119605321196010491C3900280868C5
:1034700003D040F48060086014E020F480600860AD
:103480000A4918398C130868009A00F00400521C8D
:103490000092A24201D00028F5D00868400701D46C
:1034A000002000E00120FF21196018BD2428004001
:1034B00010B5094C0021C4F898127E2101EA4000A1
:1034C00040F0800004F5267404F030FC00F006F8AB
:1034D0000121216010BD000000804142002004F065
:1034E00025BC000010B58A0721F003040849120F1B
:1034F00021440F23D1F8084893409C43C1F8084861
:10350000D1F8083890400343C1F8083810BD0000D6
:103510000030014070B50C460546FFF7C9FF40EA90
:1035200004012846BDE8704000F04ABB0CB50022FB
:10353000274900920192086840F4803008604FF4F7
:10354000A043086800F4003001900098401C0090EF
:10355000019810B900989842F3D10868800334D5D7
:10356000012001901A484030026842F08052026007
:103570001848026842F44042026015480830026868
:103580000260026842F400420260026842F4A05203
:103590000260031F104A1A600A6842F080720A60D3
:1035A0000A689201FCD50D4940F205720A60016873
:1035B00021F003010160016841F00201016001682E
:1035C000C1F381010229FAD10CBD01920CBD0000AA
:1035D000003802400070004008544007003C0240A0
:1035E0004FF0E0210428086903D020F004000861AE
:1035F000704740F00400FAE710B5502080F31188BE
:10360000BFF34F8FBFF36F8F05F0D2FE18B104499F
:103610004FF080500860002080F3118810BD00003A
:1036200004ED00E0124810B5016841F4700101603A
:103630001048016841F0010101600E4A0021083282
:10364000116002680C4B1A400260031D0B4A1A609D
:10365000026822F48022026006480C300160FFF705
:1036600065FF03494FF000608039086010BD00001D
:1036700088ED00E000380240FFFFF6FE1030002425
:1036800010B50E4C0121204600F034F8012814D169
:103690000B4A11699068814201D0906806E031B10F
:1036A0009068814203D10120D06000201061204643
:1036B000BDE81040012100F005B810BD0004004035
:1036C00058060020C943018270470029018802D0B2
:1036D00041F0010101E021F0010101807047002962
:1036E00030F8441F02D041F4004101E0C1F30E0163
:1036F0000180704702460020138A92890B4202EA39
:10370000010202D0002A00D001207047002A8289DD
:1037100001D00A4300E08A438281704770B5028C71
:1037200022F480720284028C8388848B0D8824F0BA
:10373000730425438E894FF6FF7422F4007204EA65
:10374000062616434A8804EA02223243104EB0424B
:1037500002D0104EB04215D122F40066CA8923F47B
:10376000405304EA0222324322F480668A8804EA43
:10377000022232430E8A04EA06161E434B8A04EAEA
:1037800003133343838085838968C163028470BDDA
:103790000000014000040140C163704730B5028859
:1037A000164C174DA0420DD0A8420BD0B0F1804F5F
:1037B00008D0144B984205D0134B984202D0134BBB
:1037C000984203D122F070034A881A43104B984262
:1037D00006D0104B984203D022F440730A891A4352
:1037E00002804A68C2620A880285A04201D0A842CB
:1037F00001D1897A01860121818230BD000001401A
:10380000000401400004004000080040000C00409B
:1038100000100040001400402DE9F843002550201E
:10382000EFF31184009580F31188BFF34F8FBFF33E
:103830006F8F1B4F40F225584146384600F0CDF8B7
:10384000F8B1384600F056F9174EC1B2154A706803
:103850001154401C7060232901D040280DD382F8F8
:103860004000124800236A460E49006805F070FBCC
:1038700041210C48FDF76AF975604146384600F071
:1038800095F8009838B10A494FF080500860BFF3AE
:103890004F8FBFF36F8F84F31188BDE8F88300006A
:1038A00000100140940D00208C0600203C000020F8
:1038B00004ED00E070B50F4C40F225552946204636
:1038C00000F08BF8012814D1204600F013F9C3B2A0
:1038D000094843708168402905D28268074911442C
:1038E000521C82600B7029462046BDE8704000F0F3
:1038F0005DB870BD0044004058060020380B002021
:103900002DE9F84300255020EFF31184009580F352
:103910001188BFF34F8FBFF36F8F1D4E40F22558B4
:103920004146304600F059F8012822D1304600F0D7
:10393000E1F8184AC0B21168174B0B44491C1160DA
:1039400018701649096809B17D2803D01068B0F5D0
:10395000007F0AD3124F01200023387011486A46B5
:103960003946006805F0F4FA3D704146304600F0F3
:103970001DF8009838B10C494FF080500860BFF333
:103980004F8FBFF36F8F84F31188BDE8F883000079
:10399000004800405006002038090020540600204E
:1039A0008C0600205C00002004ED00E00A0A0121E2
:1039B0009140C943018070470029818902D041F4B8
:1039C000005101E021F4005181817047024600203E
:1039D00012880A4200D00120704770B501F01F051F
:1039E00001260024C1F3421306FA05F2012B0FD081
:1039F000022B0FD0838A4FEA11210088134206FA66
:103A000001F600EA060001D000B10124204670BD95
:103A10008389F0E7038AEEE710B5C1F3421301F0A2
:103A20001F040121A140012B07D0022B07D0143025
:103A3000002A026805D00A4304E00C30F8E7103091
:103A4000F6E78A43026010BD7FB50446008A0D4642
:103A5000C98820F4405001432182A08941F20C61C1
:103A60008843A9882A8911436A8902431143A181A5
:103A7000A08A20F44071A8890843A0826846FFF715
:103A800055FA1A48844202D01948844201D1039859
:103A900000E00298A189090400EBC00101EB0010CD
:103AA000296801D5490000E08900B0FBF1F06422EB
:103AB000B0FBF2F109010B096FF018056B4300EB45
:103AC0008300A3891D044FF0320306D503EBC00029
:103AD000B0FBF2F000F0070005E003EB0010B0FBD4
:103AE000F2F000F00F00084320817FBD001001407C
:103AF000001401408088C0F308007047C1F308013A
:103B000081807047FEE700002DE9F04180460120EA
:103B100004F02EFA124E0027C6F88872C6F8847296
:103B2000052002F0A1F80724012505FA04F010EAA7
:103B3000080F02D0C6F8845201E0C6F8847205204E
:103B400002F092F8C6F88852052002F08DF8C6F807
:103B50008872052002F088F8641EE6D5BDE8F08181
:103B60000080404210B50446FEF7A0FD7820FFF724
:103B7000CBFFFEF7CFFD0020FFF7C6FFFEF7CAFD23
:103B80002046FFF7C1FFFEF7C5FDBDE81040FEF778
:103B9000A9BD10B50446FEF789FD7820FFF7B4FFF4
:103BA000FEF7B8FD4020FFF7AFFFFEF7B3FD20465C
:103BB000FFF7AAFFFEF7AEFDBDE81040FEF792BD8D
:103BC00070B5094C0D460021C4F898127E2101EA17
:103BD000400004F5267404F0A9F8284604F0A6F87D
:103BE0000120206070BD00000080414203B40198B4
:103BF0004100009850EAC12018BF04204A0D18BFA8
:103C000040F0010040F2FF72B2EB515F08BF40F09C
:103C10000200012808BF052002B0704730380A288A
:103C200001D20120704700207047704708B500247A
:103C30008DF800400DA002F031F8144E144D4FF0F5
:103C4000FF38012742466946F06C05F0DFF901288C
:103C5000F8D19DF800000128F4D1C5F8A072C82061
:103C600004F058FCC5F8A042ECE700005B617070FE
:103C70005F7461736B5F6C65645D20637265617412
:103C80006520737563636573730D0A00000000207F
:103C90000080424208B54FF47A7705E026A001F093
:103CA000FDFF384604F036FC02F060F90028F5D13B
:103CB00027A001F0F3FF314E314D324C4FF0FF3869
:103CC00042466946F06D05F0A1F90128F8D19DF84A
:103CD0000000012816D100200AE0295C642906D1E1
:103CE00029184A78222A02D1C978312910D0401CDB
:103CF00021688842F1D34FF400712148FCF704FF9A
:103D000000202060384604F005FC03F09FFAD7E756
:103D10001DA001F0C3FF012204211F4804F034F864
:103D200003F094FA002003F051FA03F04BF8052059
:103D300003F098F8DFE70000657370383236365FBD
:103D40006D7174745F696E6974202E2E2E000000F0
:103D50006573703832363620636F6E6E656374201B
:103D6000616C6979756E2077697468206D717474FF
:103D700020737563636573730D0A000000000020F3
:103D8000380900205006002065737038323636201E
:103D90002121310D0A0000002E9800082DE9FC4178
:103DA0000024012004F0A2FFDFF824814546C8F872
:103DB0003400012004F09AFFA86304F03DFEE8629D
:103DC00004F03AFE286300224121042004F0A0FF01
:103DD000E86300221421102004F09AFF28640022D6
:103DE0001421102004F094FF6864002201210420B3
:103DF00004F08EFFA86400220121042004F088FF53
:103E0000286500220121042004F082FFE8640022DA
:103E10000121042004F07CFF6865002201210420B8
:103E200004F076FFA86500220121042004F070FF51
:103E3000E86500220121042004F06AFF28660022C0
:103E40000121042004F064FF686602F0C9FF01F05C
:103E50003DFF02F0D9FEFEF70BFF04F015F802F06B
:103E600057FE01F0BDFDFEF717FE01F09BFEFEF7C9
:103E7000EFFCFEF7C7FD02F01DFD02F073F8154FD1
:103E800008F17C063E6004F073FA134D0BE005EB7D
:103E9000C101D1E90423CDE900230A89CB6849682F
:103EA00005F046FA641C04EB440155F83100002883
:103EB000EDD104F07DFA07483E6002F011FFD8F81A
:103EC000080004F00FFDBDE8FC41002004F048BBF1
:103ED00000000020280700203898000808B54E2070
:103EE0008DF800000EA001F0D9FE154CFEF70AFB7C
:103EF0008DF800004E280FD0014612A001F0CEFE32
:103F0000002364226946A06C04F070FF014601287A
:103F100002D014A001F0C2FE642004F0FBFAE5E731
:103F20005B6170705F7461736B5F6B62645D206373
:103F3000726561746520737563636573730D0A0040
:103F4000000000205B6170705F7461736B5F6B6277
:103F5000645D206B6264207072657373202563203A
:103F60000D0A00005B6170705F7461736B5F6B6260
:103F7000645D2078517565756553656E64206B626C
:103F800064206572726F7220636F646520697320AC
:103F900025640D0A0000000086B06AA001F07EFED4
:103FA000DFF8C091DFF8C081704D4FF0000A4FF08C
:103FB000FF3B4FF4FA66CDF800B0002301220F2139
:103FC000E86A04F095FD0746142004F0A3FA04F013
:103FD000CFF9C5F828A004F0EBF9F80733D0062094
:103FE000FEF798FDD9F80012002929D1002406E037
:103FF000012004F08FFA2046641CB04203D2D9F8A5
:1040000000020028F4D0B4420CD359A001F046FEBF
:104010004FF48051E86A04F01CFD014601280FD0DE
:104020005C480BE05CA001F039FE4FF48031E86A97
:1040300004F00FFD0146012802D05E4801F02EFE7B
:104040000620FEF772FDB80719D50820FEF762FDBD
:10405000D8F80802444678B957A001F01FFE02E0E4
:10406000012004F057FAD4F808020028F8D04FF4E1
:104070000031E86A04F0EDFC0820FEF756FD7807F1
:1040800019D50920FEF746FDD8F80C02444678B948
:1040900050A001F003FE02E0012004F03BFAD4F846
:1040A0000C020028F8D04FF48021E86A04F0D1FC1B
:1040B0000920FEF73AFD38077FF57DAF0A20FEF7AD
:1040C00029FDD8F810024746002837D1002406E021
:1040D000012004F01FFA2046641CB04203D2D7F836
:1040E00010020028F4D0B44220D341A001F0D6FD44
:1040F00004F03EF9686A38B10020686204F058F9AB
:10410000686A18B1012002E00120F6E702208DF86C
:1041100004000023642201A9286C04F067FE014614
:1041200001280BD03BA001F0B9FD07E046A001F04B
:10413000B5FD4FF40021E86A04F08BFC0A20FEF77D
:10414000F4FC38E75B6170705F7461736B5F6B6583
:10415000795D20637265617465207375636365734F
:10416000730D0A000000404200004242000000209F
:104170005B6170705F7461736B5F6B65795D205319
:104180003120507265737320436F6E74696E75656C
:104190000D0A00003CA300085B6170705F746173DE
:1041A0006B5F6B65795D2053312050726573730DC1
:1041B0000A000000F0A200085B6170705F74617318
:1041C0006B5F6B65795D2053322050726573730DA0
:1041D0000A0000005B6170705F7461736B5F6B65F8
:1041E000795D2053332050726573730D0A0000000F
:1041F0005B6170705F7461736B5F6B65795D205399
:104200003420507265737320436F6E74696E7565E8
:104210000D0A00005B6170705F7461736B5F6B65AA
:10422000795D2078517565756553656E64206F6C96
:104230006564206572726F7220636F6465206973B4
:104240002025640D0A0000005B6170705F7461736B
:104250006B5F6B65795D2053342050726573730D0D
:104260000A00000008B500248DF800400EA001F0FF
:1042700015FD154E154D4FF0FF3901274FF4FA7813
:104280004A466946306D04F0C1FE0128F8D19DF818
:1042900000000128F4D1C5F8A442404604F03AF9E0
:1042A000C5F8A472ECE700005B6170705F74617325
:1042B0006B5F6C65645D2063726561746520737506
:1042C00063636573730D0A000000002000804242A2
:1042D000002408B5054606682C734460A1462746AD
:1042E000A346006802F0F2FCA86039A001F0D6FCF9
:1042F0004FF0FF3000903F48002301224FF470211F
:10430000C06A04F0F5FB8046C00315D5002FEFD13D
:1043100009EB4400C1B238A2052002F0E1FB0CB168
:10432000641E103E09EB4400C1B234A2052002F025
:10433000D7FB012028736C605FEA88301DD5002F01
:10434000D6D1286802F0C2FC8246A86009EB44007E
:10435000C1B229A2052002F0C3FBAAF101008442E8
:1043600001D2641C103609EB4400C1B223A205201F
:1043700002F0B6FB022028736C605FEA483012D569
:1043800003202873002FB3D1F06838B106462860A7
:10439000284602F0A5FCF068002420B9716811B12C
:1043A0000127284688475FEA0830A1D504202873F2
:1043B000716811B1012728468847B06820B1C5E966
:1043C000000B002406462746284602F089FC8FE7AA
:1043D0005B6170705F7461736B5F6D656E755D209E
:1043E00063726561746520737563636573730D0A29
:1043F0000000000000000020200000003E0000003F
:1044000008B5214C4FF47A76304604F083F8607892
:104410000328F9D1FEF7C4F969465220FEF7E5F901
:104420000028F1D1002544F86D5FA58016486D3055
:10443000FEF788F915A001F031FCC4F8065065813B
:1044400011490622733112206D3C01F0EBFA0E483F
:104450006D304571801D45710146801FFCF79EFB44
:104460000028D1D10CA001F019FC012204210D4833
:1044700003F08AFC042002F0A9FE02F0A3FC052050
:1044800002F0F0FCC0E700000000002072656164EB
:10449000206964200D0A0000756E6C6F636B0D0A55
:1044A000000000002E9800080626504F88B04FF0FC
:1044B000FF3A4FF0040810254FF00009524605A9B5
:1044C000786D04F0A3FD0128F8D19DF814000128AF
:1044D00043D1386904F006FA8DF8006028208DF881
:1044E000010043A08DF802808DF808500190002350
:1044F00064226946386C04F079FC0146012802D038
:104500003D4801F0CBFB0024FEF74AF904E0641CAF
:10451000E4B2642001F08CFB06A95220FEF765F995
:1045200008B11E2CF3D3C7F86D90A7F871902F48EF
:104530006D30FEF707F903F01BFF2C4906226D31A1
:10454000122001F0CBFA03F033FF2CA001F0A6FB00
:10455000012202212E4803F017FC9DF814000228C6
:10456000ACD1386904F0BEF98DF800608DF80150C7
:1045700028A08DF802808DF8085001900023642255
:104580006946386C04F032FC0146012802D01A4812
:1045900001F084FB0024FEF703F904E0641CE4B29C
:1045A000642001F045FB06A95220FEF71EF908B170
:1045B0001E2CF3D3C7F86D90A7F871900B486D309F
:1045C000FEF7C0F803F0D4FE084905226831122036
:1045D00001F084FA03F0ECFE10A001F05FFB012271
:1045E00002210B4803F0D0FB68E700000000002028
:1045F00041646420494400008CA300086164642085
:10460000696420737563636573730D0A00000000AD
:104610002C98000844656C204944000064656C20B7
:10462000696420737563636573730D0A000000008D
:1046300008B500208DF800000DA001F02FFB144CF0
:104640004FF0FF3540F2DC562A466946206E04F0F2
:10465000DDFC0128F8D19DF800000128F4D102F01A
:104660008DFB304603F056FF02F09AFBECE70000AA
:104670005B6170705F7461736B5F6C65645D206318
:10468000726561746520737563636573730D0A00E9
:104690000000002008B500248DF8004029A001F09A
:1046A000FDFADFF8C080304E4FF0FF3901254A4651
:1046B0006946D8F8640004F0A9FC0128F7D19DF8F8
:1046C0000000012806D1C6F89C42642003F022FFB6
:1046D000C6F89C529DF80000022806D1C6F8A442F4
:1046E000642003F017FFC6F8A4529DF800000328C9
:1046F00008D11E4FC7F89842642007F5267703F0CB
:1047000009FF3D609DF80000042808D1184FC7F844
:104710009842642007F5267703F0FCFE3D609DF883
:104720000000052808D1134FC7F8A042642007F500
:10473000287703F0EFFE3D604FF4FA7003F0EAFED5
:10474000B5E700005B6170705F7461736B5F6C65EF
:10475000645D20637265617465207375636365735E
:10476000730D0A000000002000004142008040421A
:10477000000042420000404286B024A001F08EFAC0
:104780002B4C4FF0FF352A4601A9206C04F03EFC6B
:104790000128F8D19DF80400092833D2DFE800F0A1
:1047A000320508320B320E182100FEF731FAEAE723
:1047B000FEF71FFAE7E7FEF7FFF9E4E79DF80C3094
:1047C0009DF806109DF80500029AFEF763FBDAE7F4
:1047D0009DF80D209DF806109DF80500FEF7EEFAF5
:1047E000D1E7049800909DF806109DF815009DF8FB
:1047F00014200844C3B29DF805000244D2B2FEF76B
:1048000016FAC0E70BA001F049FABCE75B617070D3
:104810005F7461736B5F6F6C65645D20637265616B
:10482000746520737563636573730D0A000000007F
:10483000000000205B6170705F7461736B5F6F6C70
:1048400065645D206F6C6564206374726C20636FB7
:10485000646520697320696E76616C69640D0A0075
:1048600030B5044685B015A001F018FA194D0420A2
:104870008DF80000002364226946286C04F0B6FA23
:104880000146012802D014A001F008FA207B032879
:104890000BD1606810B1012802D003E0012000E0D4
:1048A0000220E861E86803F0A7FF207B042802D11A
:1048B000E86804F017F805B030BD00005B6D656E68
:1048C000755F706173735F66756E5D202E2E2E0DA1
:1048D0000A000000000000205B6D656E755F70616E
:1048E00073735F66756E5D20785175657565536588
:1048F0006E64206F6C6564207069637475726520E6
:104900006572726F7220636F64652069732025641D
:104910000D0A000092B04FF0000ACDF828A0CDF8A3
:104920002CA08DF824A05446CDF814A0CDF818A0E2
:10493000CDF81CA0FCA1CDF820A0D1E90021CDF834
:1049400030A00F91CDE90DA242250426F8A001F078
:10495000A5F90DF1280B4FF006084FF01009FE4F96
:104960004FF0FF3209A9B86C04F050FB10900128F9
:10497000F6D19DF82400432803D0F969012929D0F4
:10498000E1E0CDF828A0CDF814A04225CDF82CA068
:104990008DF800800426CDF818A0CDF81CA08DF865
:1049A0000150EEA00024CDF820A08DF802608DF813
:1049B00008900190234664226946386C04F016FA88
:1049C0000146012802D0E7A001F068F9F5A001F046
:1049D00065F9C5E72A282FD0062C3BD20BF8040036
:1049E0008DF800808DF801500BEB04008DF802600B
:1049F0008DF808900190002364226946386C04F019
:104A0000F5F90146012802D0D6A001F047F964204B
:104A100003F080FDE5A00190002364226946386C14
:104A200004F0E4F90146012802D0CEA001F036F9E5
:104A30000835EDB2641C86E0002C91D0641E083D60
:104A40000BF804A0EDB28DF800808DF801508DF8C0
:104A50000260EFE0232876D10AA9D5A001F01EF963
:104A600006220CA9002000F0DDFF06220AA90CA8EE
:104A7000FBF7B2FF002815D0D8A001F00FF90622ED
:104A80000AA90EA8FBF7A8FF60B1E1A001F006F9A2
:104A9000EDA0109901F002F901220421FA4803F077
:104AA00073F91FE0F9A001F0F9F804208DF8000077
:104AB000002364226946386C04F098F90146012805
:104AC00002D0A8A001F0EAF8EF4801220421001F5B
:104AD00003F05AF9012002F079FB02F073F9052086
:104AE00002F0C0F94FF4FA6003F014FDCDF828A0ED
:104AF00004200024CDF82CA08DF800004225234688
:104B000064226946386C04F071F90146012802D02C
:104B100094A001F0C3F88DF8008042208DF80100C8
:104B200004208DF802008DA001908DF808900023DC
:104B300064226946386C04F059F90146012802D014
:104B400088A001F0ABF8F86902287FF442AF386A18
:104B5000012836D00228F8D19DF824002A285BD0FD
:104B6000062C79D20BF804008DF8008040468DF8B1
:104B700001508DF802000BEB04008DF808900190B5
:104B8000002364226946386C04F030F9014601289C
:104B900002D074A001F082F8642003F0BBFC83A073
:104BA0000190002364226946386C04F01FF9014625
:104BB000012802D06BA001F071F80835EDB2641C39
:104BC000CEE69DF824002A2809D0062C14D20BF832
:104BD00004008DF800808DF801500220C9E7002CF8
:104BE000EED0641E083D0BF804A0EDB28DF80080F5
:104BF0008DF8015002201BE02328E1D10220386209
:104C0000DDE90A01CDE9050100244225CDF828A0FF
:104C10000626CDF82CA0A3E6002CD1D0641E083DBA
:104C20000BF804A0EDB28DF8008040468DF80150DD
:104C30008DF8020099A08DF808900190002364225D
:104C40006946386C04F0D2F801460128B8D045A076
:104C500001F024F884E6FFE72328B1D1DDE90A0159
:104C6000CDE9070106220CA9002000F0DBFE0CA90B
:104C70008BA001F013F8062205A90CA8FBF7ACFEE7
:104C800000281DD005A992A001F008F853A001F05A
:104C900005F8062205A90EA8FBF79EFE04460EA9FC
:104CA00096A000F0FBFF5CB159A000F0F7FF9FA0B9
:104CB00000F0F4FF01220421734803F065F880E15D
:104CC0009FA000F0EBFF03F053FB062207A9002092
:104CD00000F004FF03F06CFB6B4800220421001F6E
:104CE00003F052F805208DF8000040208DF80100F7
:104CF0008DF80A0008208DF802A08DF80B00002323
:104D000064226946386C04F071F80146012802D02B
:104D100014A000F0C3FF42258DF8008044468DF8B2
:104D20000150022022E100003132333435360000D8
:104D30005B6170705F7461736B5F706173735F6DE3
:104D4000616E5D2063726561746520737563636570
:104D500073730D0A00000000000000202D2D2D2D82
:104D60002D2D00005B6170705F7461736B5F70610B
:104D700073735F6D616E5D20785175657565536500
:104D80006E64206F6C656420737472696E67206551
:104D900072726F7220636F64652069732025640DE1
:104DA0000A000000B8B4CEBB0D0A00002A000000C3
:104DB0005B6170705F7461736B5F706173735F6D63
:104DC000616E5D2061757468206B6579206275661F
:104DD000206973202536730D0A0000005B61707036
:104DE0005F7461736B5F706173735F6D616E5D2083
:104DF00070617373776F7264206175746820627973
:104E000020656570726F6D206661696C0D0A000027
:104E10005B6170705F7461736B5F706173735F6D02
:104E2000616E5D2070617373776F72642061757459
:104E30006820627920646566616C757420666169BA
:104E40006C20746F6F0D0A005B6170705F7461732A
:104E50006B5F706173735F6D616E5D207851756516
:104E6000756553656E64206F6C656420706963744A
:104E7000757265206572726F7220636F6465206958
:104E8000732025640D0A000032980008C3DCC2EBD1
:104E9000C6A5C5E4B3C9B9A60D0A00002D000000DF
:104EA0005B6170705F7461736B5F706173735F6D72
:104EB000616E5D2070617373776F726420656570D9
:104EC000726F6D206973202536730D0A0000000093
:104ED0005B6170705F7461736B5F706173735F6D42
:104EE000616E5D2070617373776F7264206F6C64A4
:104EF000206973202536730D0A0000005B61707015
:104F00005F7461736B5F706173735F6D616E5D2061
:104F100070617373776F72642064656661756C7419
:104F2000206973202536730D0A000000C6A5C5E46C
:104F3000BEC9C3DCC2EBCAA7B0DC0D0A000000008A
:104F40005B6170705F7461736B5F706173735F6DD1
:104F5000616E5D2070617373776F72642061757428
:104F60006820737563636573730D0A008DF8020022
:104F70001EA001908DF8089000234FF47A726946C4
:104F8000386C03F033FF0146012803D0AFF22C2028
:104F900000F084FE8DF800408DF8015015A08DF8CA
:104FA000024001908DF8089000234FF47A72694610
:104FB000386C03F01BFF0146012802D00FA000F05F
:104FC0006DFE4FF47A7003F0A5FA012038620024D8
:104FD000CDF828A0CDF82CA0CDF814A0CDF818A0BD
:104FE000CDF81CA04225CDF820A0B9E46368616E1D
:104FF0006765000073756363657373005B6D656E51
:10500000755F706173735F6D616E5F66756E5D2055
:1050100078517565756553656E64206F6C656420A5
:10502000737472696E67206572726F7220636F6449
:10503000652069732025640D0A00000030B5044620
:1050400087B02EA000F02AFE324D04208DF800001B
:10505000002364226946286C03F0C8FE014601283B
:1050600002D02DA000F01AFE207B032839D1606801
:10507000A0B901208DF814000023642205A9686DF1
:1050800003F0B4FE0146012802D023A000F006FE82
:10509000686903F0B1FB286903F024FC606801280B
:1050A00014D102208DF814000023642205A9686D34
:1050B00003F09CFE0146012802D017A000F0EEFD8F
:1050C000686903F099FB286903F00CFC606802280A
:1050D00007D103206870286903F08EFB686903F02C
:1050E00001FC207B042807D1686903F0FBFB2869D9
:1050F00003F0F8FB0020687007B030BD5B6D656E93
:10510000755F726669645F66756E5D202E2E2E0D6A
:105110000A000000000000205B6D656E755F72661E
:1051200069645F66756E5D20785175657565536558
:105130006E64206F6C65642070696374757265209D
:105140006572726F7220636F6465206973202564D5
:105150000D0A000092B000250795089509956E1E6E
:10516000314C0A950B950C950D954FF010080627BC
:105170000E950096002301221021E06A03F0B8FC8E
:105180001028F6D120780128F3D110A9FDF7E0FF0F
:105190000A959DF8420000900795089509959DF89D
:1051A00041309DF8402021A107A8FBF747F92020B6
:1051B0008DF8090004208DF80A0007A88DF8087002
:1051C0008DF8108003900023324602A9206C03F072
:1051D0000DFE0128CDD10FA9FDF778FF9DF83C10F9
:1051E0000B959DF83E00CDE900010C950D950E95AF
:1051F0009DF83D309DF83F2010A10BA8FBF71EF94C
:105200000E208DF8090002208DF80A000BA88DF8F9
:1052100008708DF8108003900023324602A9206C9C
:1052200003F0E4FDA5E700000000002025303278FF
:105230003A253032783A2530327800003230253045
:1052400032782D253032782D253032782D256400A6
:1052500030B5044685B011A000F020FD154D0420A6
:105260008DF80000002364226946286C03F0BEFD1F
:105270000146012802D010A000F010FD207B032879
:1052800004D101202870A86803F0B6FA207B042816
:1052900002D1A86803F026FB05B030BD5B6D656EDA
:1052A000755F7274635F66756E5D202E2E2E0D0A1B
:1052B00000000000000000205B6D656E755F727479
:1052C000635F66756E5D2078517565756553656EB3
:1052D00064206F6C65642070696374757265206505
:1052E00072726F7220636F64652069732025640D8C
:1052F0000A000000002442F21075284603F00AF963
:10530000641CE4B2052CF8D101F0A0FF0024F4E7FE
:1053100088B0854C00254FF47A76A07801285BD1BF
:1053200082A000F0BBFC032001F05EF8A57006200F
:105330008DF800008DF8015004208DF80200102037
:105340008DF808007BA00190002364226946206C40
:1053500003F04CFD0146012802D07BA000F09EFC2A
:10536000032001F041F888A0FBF75CF892A0FBF75E
:1053700059F805A801F058F910F0FF0F2CD1A570CD
:10538000BDF8141099A0FBF74DF8BDF81400401CAF
:1053900080B201F0A3F810F0FF0F21D0012001F03E
:1053A00023F801220421974802F0EEFC96A0019018
:1053B000002364226946206C03F018FD0146012891
:1053C00002D093A000F06AFC642000F031FC01F0F0
:1053D0009BFA304600F02CFCA07804280DD028E081
:1053E000022001F001F8874801220221801F02F00B
:1053F000CBFC97A0FBF716F8E6E7A570032000F0BA
:10540000F3FF61A0FBF70EF801F004F810F0FF0FB6
:1054100013D0012000F0E8FF01220421794802F0B6
:10542000B3FC642000F004FC01F06EFA304600F09A
:10543000FFFBA07802280BD027E0022000F0D4FF69
:1054400088A0FAF7EFFF6F4801220221801FE6E7EC
:10545000A570032000F0C8FF4BA0FAF7E3FF05A8F2
:1054600001F0E2F810F0FF0F13D0012000F0BCFFB4
:1054700001220421634802F087FC642000F0D8FB7D
:1054800001F042FA304600F0D3FBA07803280DD09B
:1054900030E0022000F0A8FFBDF8141053A0FAF786
:1054A000C1FF584801220221801FE4E7A5700320B4
:1054B00000F09AFF34A0FAF7B5FF6EA0FAF7B2FF3A
:1054C0004FF6FF70ADF8180006A801F021F910F0B2
:1054D000FF0F13D0012000F087FF0122042149486B
:1054E00002F052FC642000F0A3FB01F00DFA3046FC
:1054F00000F09EFB304603F00DF80EE7022000F0AE
:1055000073FFBDF8181067A0FAF78CFF032001F0B5
:105510005DFE01F057FC052001F0A4FC3948012292
:105520000421001FDCE70000000000206164640D1E
:105530000A000000416464202046696E676572704D
:1055400072696E74000000005B6170705F7461735B
:105550006B5F73666D5D2078517565756553656E1B
:1055600064206F6C656420646874313120737472D8
:10557000696E67206572726F7220636F646520695F
:10558000732025640D0A00000D0A0D0A3D3D3D3DC6
:105590003D3D3D3D3D3D3D3D3D3D3D3D3D3D3D3D3B
:1055A0003D3D3D3D3D3D3D3D3D3D3D3D3D3D3D3D2B
:1055B0003D0D0A0D0A000000D6B4D0D0CCEDBCD30E
:1055C000D6B8CEC6B2D9D7F72CC7EBBDABCAD6D6A4
:1055D000B8B7C5B5BDD6B8CEC6C4A3BFE9B4A5C3D8
:1055E000FEB8D0D3A6C7F80D0A000000BBF1C8A1D1
:1055F000D6B8CEC6D7DCCAFDA3BA253034640D0AAE
:1056000000000000329800086164645F66616C000D
:105610005B6170705F7461736B5F706173735F6DFA
:10562000616E5D2078517565756553656E64206F98
:105630006C656420737472696E67206572726F7234
:1056400020636F64652069732025640D0A000000E3
:10565000D7D4B6AFD7A2B2E1D6B8CEC6B3C9B9A631
:105660000D0A0000C7E5BFD5D6B8CEC6B3C9B9A6E6
:105670000D0A0000D6B4D0D0CBA2D6B8CEC6B2D9CF
:10568000D7F72CC7EBBDABCAD6D6B8B7C5B5BDD614
:10569000B8CEC6C4A3BFE9B4A5C3FEB8D0D3A6C7CD
:1056A000F80D0A00D7D4B6AFD1E9D6A4D6B8CEC685
:1056B00025303464B3C9B9A6210D0A0070B505467A
:1056C00086B01BA000F0EAFA1F4C04268DF800609B
:1056D000002364226946206C03F088FB0146012800
:1056E00002D01AA000F0DAFA287B032816D16868E5
:1056F00030B1012806D0022807D0032807D007E0E0
:10570000012000E00220A07002E00320FBE7A67069
:10571000032000F069FEA06903F06EF8287B0428DE
:1057200004D10020A070A06903F0DCF806B070BDC1
:105730005B6D656E755F73666D5F66756E5D202E61
:105740002E2E0D0A00000000000000205B6D656E2B
:10575000755F73666D5F66756E5D207851756575F2
:105760006553656E64206F6C656420706963747541
:105770007265206572726F7220636F646520697351
:105780002025640D0A000000A2B000261A96139688
:10579000771E6E4C1B961496159617960A2518962A
:1057A0003A4602A9E06B03F031FC0128F8D168A168
:1057B00002A8FBF7FFF8A8B31AA920A8CDE90001B9
:1057C0001FAB1EAA65A102A8FAF7C0FF1E98B0FB86
:1057D000F5F101EB410100EB41031F981E93B0FB73
:1057E000F5F101EB410100EB410220981F92B0FB63
:1057F000F5F101EB410100EB41011A982091B0FB5A
:10580000F5FC8DF85B300CEB4C0C8DF8592000EB5F
:105810004C008DF85A101A908DF8580016A90120E6
:10582000FDF706FD53A102A8FBF7C4F860B31BA85F
:1058300000901DAB1CAA52A102A8FAF787FF1C9882
:10584000B0FBF5F101EB410100EB41001D991C900B
:10585000B1FBF5F202EB420201EB42011B9A1D91F2
:10586000B2FBF5F303EB430302EB430240238DF855
:1058700067308DF864008DF865101B928DF86620F6
:1058800019A90120FDF720FD42A102A8FBF792F81B
:1058900088B313AA41A102A8FAF758FF8DF8546003
:1058A00041A113A8FBF786F868B101220421404802
:1058B00002F06AFA022001F089FC01F083FA052067
:1058C00001F0D0FA6CE7062217A9002000F0AAF830
:1058D00017A913A8FBF76EF850B101220421344830
:1058E00002F052FA022001F071FC01F06BFA57E766
:1058F00030A000F0D3F933A102A8FBF75BF820B188
:105900004FF48031E06A03F0A4F82FA102A8FBF75E
:1059100051F820B14FF40031E06A03F09AF82CA15D
:1059200002A8FBF747F820B14FF48021E06A03F0AA
:1059300090F829A102A8FBF73DF80028C2D04FF447
:105940000021E06A03F085F82AE70000000000204B
:1059500044415445205345540000000044415445FF
:10596000205345542D25642D25642D25642D256453
:105970002300000054494D452053455400000000C9
:1059800054494D45205345542D25642D25642D251E
:1059900064230000554E4C4F434B0000554E4C4F76
:1059A000434B20257323000038383838383800003E
:1059B0002E98000870617373206572726F720D0A01
:1059C0000000000055500000444F574E00000000FA
:1059D000454E5445520000004241434B0000000038
:1059E0001CB501210220FDF77DFA4FF4407001241F
:1059F00000908DF804408DF8064003208DF80500D6
:105A000000208DF8070069460448FCF725FD04488E
:105A1000C0F8A042C0F8A4421CBD0000000402402F
:105A20000080404270B515460C46064601F008F865
:105A3000A02000F0D7FF01F037F828B11BA0FAF73B
:105A4000F1FC4FF0FF3070BD304600F0CBFF01F0AD
:105A50002BF828B11BA0FAF7E5FC6FF0010070BD30
:105A600000F0EEFFA12000F0BDFF01F01DF828B10D
:105A70000EA0FAF7D7FC6FF0020070BD6D1EEDB2FC
:105A800006E000F08BFF2070002000F05FFF641C38
:105A90006D1EEDB2F5D200F081FF2070012000F004
:105AA00055FF00F0E9FF002070BD000064657669D5
:105AB00063652061646472657373206572726F72CE
:105AC0000D0A0000776F72642061646472657373FD
:105AD000206572726F720D0A0000000070B51546E5
