:020000040800F2
:10000000C05001209503000857230008E52100088F
:1000100055230008C7200008712F000800000000C9
:10002000000000000000000000000000D5020008F1
:10003000C92000080000000031030008092D000855
:10004000AF030008AF030008AF030008112B00083E
:10005000AF030008AF030008AF030008AF030008B8
:10006000AF030008AF030008AF030008AF030008A8
:10007000AF030008AF030008AF030008AF03000898
:10008000AF030008AF030008AF030008AF03000888
:10009000AF030008AF030008AF030008AF03000878
:1000A000AF030008AF030008AF030008AF03000868
:1000B000AF030008AF030008AF030008AF03000858
:1000C000AF030008AF030008AF030008AF03000848
:1000D000AF030008912D0008AF030008AF0300082C
:1000E000AF030008AF030008AF030008AF03000828
:1000F000AF030008AF030008AF030008AF03000818
:10010000AF030008AF030008AF030008AF03000807
:10011000AF030008AF030008AF030008AF030008F7
:10012000AF030008AF030008AF030008AF030008E7
:10013000AF030008AF030008AF030008AF030008D7
:10014000AF030008AF030008AF030008AF030008C7
:10015000AF030008AF030008AF030008AF030008B7
:10016000AF030008AF030008AF030008AF030008A7
:10017000AF030008AF030008AF030008AF03000897
:10018000AF030008AF03000800F002F800F092F897
:100190000AA090E8000C82448344AAF10107DA45E2
:1001A00001D100F087F8AFF2090EBAE80F0013F0A2
:1001B000010F18BFFB1A43F001031847505D000000
:1001C000705D0000103A24BF78C878C1FAD8520791
:1001D00024BF30C830C144BF04680C6070470000C1
:1001E0000023002400250026103A28BF78C1FBD840
:1001F000520728BF30C148BF0B6070476E2900F01E
:100200008984702900F0B381662905F0A8816529E9
:1002100005F0A581672905F0A2816129AFF300806F
:1002200003681B0A28BF41F08001692900F024817E
:10023000642900F02181752900F01E816F2900F0EA
:100240006B85782900F07F81E92900F00585E42994
:1002500000F00285F52900F0FF84EF2900F06885A1
:10026000F82900F07E810368DB0928BF41F0800196
:10027000632901F04280732901F04780E32901F0EE
:100280005280F32901F05780002070471FB505F018
:1002900061F901F061FA04000020002105F044F941
:1002A000401C60600020002105F028F9E0601FBDBF
:1002B00010B510BD01F022FA1146FFF7E7FF03F079
:1002C00003FA01F0FBFA03B4FFF7F2FF03BC02F0FC
:1002D000D2FE00002C4B19680868B0E8F04F80F39C
:1002E0000988BFF36F8F4FF0000080F311887047CB
:1002F0000000000008480068006880F308884FF09C
:10030000000080F3148862B661B6BFF34F8FBFF36D
:100310006F8F00DF00BF00BF08ED00E0DFF80C00CA
:10032000016841F470010160704700BF88ED00E092
:10033000EFF30980BFF36F8F134B1A681EF0100F95
:1003400008BF20ED108A20E9F04F106009B44FF08B
:10035000500080F31188BFF34F8FBFF36F8F04F00D
:10036000C3F94FF0000080F3118809BC19680868D0
:10037000B0E8F04F1EF0100F08BFB0EC108A80F309
:100380000988BFF36F8F70475C000020EFF3058092
:10039000704700000948804709480047FEE7FEE72C
:1003A000FEE7FEE7FEE7FEE7FEE7FEE7FEE7FEE725
:1003B00004480549054A064B70470000352D0008E2
:1003C00089010008C0300120C0500120C040012038
:1003D000C0400120704700000A46014900F0CCBB34
:1003E000480000200FB4044910B503AA029800F099
:1003F000C3FB10BC5DF814FB480000200FB41CB513
:10040000084B06AA7B4469460090059800F09BFBC8
:1004100004460020694600F0A9FB20461CBC5DF89C
:1004200014FB00006507000070B50446856900688C
:10043000C10601D5302600E02026C00707D070BDD8
:10044000D4E9012130469047206A401C20626D1E8D
:10045000F6D570BD70B5044685690078C00707D130
:1004600070BDD4E9012120209047206A401C206201
:100470006D1EF6D570BD00002DE9F0410646002442
:1004800010687529314616A510D000F0AFFA002883
:1004900002DA404213A507E031688A0701D512A5A8
:1004A00002E0490704D511A5012401E000F0A7FAF4
:1004B00000210A2206F1240709E0B0FBF2FCB0FBA0
:1004C000F2F302FB1C00303078541846491C002817
:1004D000F3D123462A463046BDE8F04100F0C1BAC8
:1004E000000000002D0000002B0000002000000094
:1004F000F0B40D460188090502D5214C7C4402E088
:100500001F4C7C440E34002100F1240608E002F068
:100510000F071209E75D42EA03721B097754491C71
:1005200052EA0307F3D102780023120704D5702D95
:1005300006D009B1022311342246F0BC00F091BA72
:1005400001231034F8E770B504460D4621461068C3
:1005500000F055FA024629462046BDE870400023C7
:10056000C6E7D21D22F00703D3E90023C0E70368E2
:10057000126843F0200303600823C3610023B7E738
:10058000F45800002DE9F05F894604464FF0000A58
:10059000DFF874B1FB44C0F820A02046E16888472A
:1005A000002874D0252806D0D4E901219047206A7C
:1005B000401C2062F1E700265F462046E16888473C
:1005C0002028054607DB312D05D2781910F8200CBC
:1005D00008B10643F1E7B00701D526F00406C4F8D8
:1005E0001CA00027C4F818A02A2D09D0284602F024
:1005F0003BFD38B304EB8708303DC8F8185019E0CC
:1006000059F8041B204604EB87029161E168884792
:10061000012F054618D1E069002820DA26F02006CF
:100620001DE0D8F8180000EB800005EB40003038E2
:10063000C8F818002046E1688847054602F014FD16
:100640000028EED1012F0AD02E2D08D12046E168D6
:1006500088477F1C0546022F46F02006C4DBA069B0
:10066000002803DA404246F00106A061F00701D0FD
:1006700026F010066C2D0BD0682D09D04C2D39D0EA
:100680006A2D35D0742D35D07A2D33D016E038E070
:10069000E1682F4620468847B842054609D16C2FAD
:1006A00026D04FF48060E16806432046884705461F
:1006B00004E06C2F1AD04FF4807006430DB3A5F1FF
:1006C0004100192802D8203546F400664A462946DA
:1006D000204626604E46FFF791FD80B101280BD0E1
:1006E000F61D26F0070000F1080956E74020E4E770
:1006F0008020D8E70020D6E706F104094DE7284618
:1007000052E7206ABDE8F09F845800000FB400B59E
:100710008DB010A9099000910B904FF0FF300A9016
:1007200000200C90064878440690064878446A46B3
:1007300007900F9909A800F019FB0DB05DF814FBA4
:10074000630600007B0600002DE9FF5F1D464FF0A9
:10075000FF3B91464FF000085F46D5E90146A96985
:1007600001987F1C8847296A824688470028F6D16D
:10077000BAF1FF3F0CD0002E24F4C06419DD6006EE
:1007800014D5BAF12B0F09D0BAF12D0F0ED103E019
:10079000584604B0BDE8F09F44F48064A96901980C
:1007A0007F1C8847761E8246002E02DDBAF1300F8C
:1007B00003D0B9F1000F26D032E0A969761E019866
:1007C0007F1C44F400748847002E824605DDBAF190
:1007D000780F06D0BAF1580F03D0B9F1000F10D03E
:1007E0001EE0B9F1000F02D0B9F1100F18D1A969BC
:1007F000761E01987F1C24F40074884782461020DE
:1008000002E0082000E00A20814609E0A96908FB0F
:100810000908761E01987F1C44F4007488478246BC
:10082000002E05DD4946504600F08CFA0028EDDA2E
:10083000E96901988847A00502D46FF00100A8E794
:10084000E00725D1600613D5600502D5C8F1000088
:1008500000E0404629680A1D2A600968220501D582
:10086000087015E0220701D5088011E008600FE04C
:100870002868011D29600068210502D580F80080E4
:1008800006E0210702D5A0F8008001E0C0F8008052
:1008900038467EE730B505460B462A4613F8014B2D
:1008A00012F8010B08B1A042F8D01CB1002802D008
:1008B0006D1CF1E7284630BD032A40F2308010F06D
:1008C000030C00F0158011F8013BBCF1020F6244EB
:1008D00098BF11F801CB00F8013B38BF11F8013B7C
:1008E000A2F1040298BF00F801CB38BF00F8013B29
:1008F00011F0030300F06A82083AC0F0088051F852
:10090000043B083A51F804CBA0E80810F5E7121DA3
:100910005CBF51F8043B40F8043BAFF30080D207C2
:1009200024BF11F8013B11F801CB48BF11F8012B8E
:1009300024BF00F8013B00F801CB48BF00F8012BB1
:10094000704702F0FF0343EA032242EA024200F04A
:1009500002B84FF000020429C0F0128010F0030C1E
:1009600000F01B80CCF1040CBCF1020F18BF00F8A2
:10097000012BA8BF20F8022BA1EB0C0100F00DB851
:100980005FEAC17C24BF00F8012B00F8012B48BFAF
:1009900000F8012B70474FF0000200B51346944653
:1009A0009646203922BFA0E80C50A0E80C50B1F1C7
:1009B0002001BFF4F7AF090728BFA0E80C5048BFDB
:1009C0000CC05DF804EB890028BF40F8042B08BF79
:1009D000704748BF20F8022B11F0804F18BF00F875
:1009E000012B7047704770477047704709684A0588
:1009F00001D540B27047C905FCD500B270470968FF
:100A00004A0501D5C0B27047C905FCD580B2704710
:100A100070B50C460546012A05D02878800600D519
:100A2000EA69002302E0012305E05B1C934202D245
:100A3000E05C0028F9D1A869E618C01AA861286A04
:100A4000184428622846FFF7EFFC04E0D5E90121AD
:100A500014F8010B9047B442F8D32846FFF7FAFC8C
:100A600070BD2DE9F0470D4699469246044600F1C7
:100A700024080168880604D5E06921F0100121608E
:100A800000E00120A84201DD471B00E00027A1692A
:100A90007A1902EB0900081AA0612078C00602D476
:100AA0002046FFF7C1FC002608E0D4E901211AF82E
:100AB00006009047206A401C761C20624E45F4DBFD
:100AC0002078C0060AD52046FFF7AEFC06E0D4E940
:100AD000012130209047206A401C2062381EA7F177
:100AE0000107F4DC07E0D4E9012118F8050090477C
:100AF000206A401C2062281EA5F10105F3DC204677
:100B0000FFF7A8FC2078000602D50220BDE8F08798
:100B10000120FBE711680268006A530501D50870DF
:100B20000AE0D30501D5088006E0130603D5C217F5
:100B3000C1E9000200E008600120704701694A1C19
:100B400002610878704700B58FB0CDE9013100210E
:100B5000059105497944CDE9031011466846FFF730
:100B600011FD0FB000BD0000E5FFFFFF0A6802F8AD
:100B7000010B0A6070470000074B70B50D467B44BF
:100B8000FFF7E1FF0446284600F094FD10B14FF056
:100B9000FF3070BD204670BD332B00002DE9FF5F94
:100BA00015468A460446DFF8AC80F8440027D8E9A9
:100BB00000103E46CDE9001010E03AF816106A46E3
:100BC00002A800F07BFD411C07D02178890603D5DF
:100BD000E269391891420DD80744761C20788006C6
:100BE00002D5E069B84205DDAE42E6DB3AF8160010
:100BF0000028E2D1A069C01BA0612046FFF714FCC9
:100C0000D8E90010CDE90010002017E03AF81810DC
:100C10006A4602A800F052FDB0F1FF3F81460BD0BA
:100C200000250DF1080B05E0D4E901211BF80500B2
:100C300090476D1C4D45F7D308F10100B042804646
:100C4000E4DB206A384420622046FFF703FCBDE85D
:100C5000FF9F0000825200002DE9F0418046D21D26
:100C600022F007020025D2E90002F52915A614D0CA
:100C7000011E72F1000106DA0023D0EB030063EBE2
:100C8000020211A608E0D8F800108B0701D50FA6C4
:100C900002E0490701D50EA601251146002408F1FE
:100CA000240704E000F0C4F830323A55641C50EADE
:100CB0000102F7D12B46324621464046BDE8F041BD
:100CC000FFF7CFBE000000002D0000002B00000049
:100CD0002000000030B4002100F1240408E002F0FC
:100CE0000705D208303542EA4372DB086554491CD7
:100CF00052EA0305F3D10468002310A2250708D5A2
:100D000004F020040C4304D0C46901230CA2641E27
:100D1000C46130BCFFF7A5BE10B50446214610687B
:100D2000FFF76DFE02462046BDE810400023D1E7E4
:100D3000D21D22F00701D1E90023CBE7000000001B
:100D4000300000003A2800D2303820F02002412A3A
:100D500001D3A2F13700884201D34FF0FF30704732
:100D6000026811441378016018467047D160054944
:100D7000794451610449794411620021116111469D
:100D800000F0DEBAEDFFFFFF41010000426842B112
:100D9000016811F8013B23B1521EC0E90012184648
:100DA00070470121C160881E704742685AB1C3680C
:100DB000016843B983688B4205D0491E521CC0E9C3
:100DC0000012002070474FF0FF30704710B5203AF6
:100DD000C0F00B80B1E81850203AA0E81850B1E8F4
:100DE0001850A0E81850BFF4F5AF5FEA027C24BFAA
:100DF000B1E81850A0E8185044BF18C918C0BDE8A1
:100E000010405FEA827C24BF51F8043B40F8043B69
:100E100008BF7047D20728BF31F8023B48BF11F81E
:100E2000012B28BF20F8023B48BF00F8012B704778
:100E300030B5B0F10A024FEA900E71F100034EEAAC
:100E4000817EB0EB0E0061EB91014FEA101E4EEA7D
:100E5000017E10EB0E0041EB11114FEA102E4EEA0D
:100E6000016E10EB0E0041EB11214FEA104E4EEADD
:100E7000014E10EB0E0041EB1141401841F1000111
:100E80004FEAD00040EA41704FEAD10110EB8005F3
:100E90004FEA810444EA907444EB01046D1944EB79
:100EA0000404521BA3414FF0000348BF0A3200D58F
:100EB00030BD401C41F1000130BD10B5044600F0CA
:100EC00043FC0068005D00F0010010BD70472DE993
:100ED000FF4F0C461E464FF0FF378BB0D2E90001A2
:100EE000DDF860800A908A46C1F30A5505B93D468F
:100EF000002108464FF00000BAF1000F00F4400056
:100F000005DA00EB80004FF4400101EA50004FEA9F
:100F10009059B9F1010F00DDB9460A9850EA4A002C
:100F20000ED044F61050A5F2FF3545432F14B8F10A
:100F3000000F1ED07542291E1EDDC9F100021CE003
:100F4000B8F1010F4FF0000001D0302103E0F2436F
:100F500005E02154401CB042FBDB3046002200215A
:100F600021540B99C1F80880C1E900200FB0BDE8F9
:100F7000F08FBD1B6D1CDEE74A4600DA694206A809
:100F800000F02EFC06AB93E8070003AB83E80700F4
:100F900050460A9900F0DCFC8DE80700A0F50050EF
:100FA0001F3800900398002D09DD42F21F014A46C8
:100FB000084403A90390684600F03BFF08E0A0F551
:100FC00000504A461F3803A90390684600F045FFC9
:100FD0008DE807000004000C03D04FF0FF304108FB
:100FE00000E01046B8F1000F03D000220092154631
:100FF0001EE0751E05D4FFF71BFF303262556D1ED3
:10100000F9D5B3460122084302D000227F1C04E038
:101010002078302801D100227F1E002A099786D02F
:101020001DE0112D07DAFFF703FF303262556D1C0A
:1010300050EA0102F5D1084302D00098C8B10EE091
:101040000021681E05E0235C625C63542254401E4C
:10105000491C8142F7DBAB46A81B401E09900020CB
:1010600004F80B000B98099AC0F80880C0E9002B1F
:101070007CE711264FF0000859E72DE9F04F88462C
:101080000446D21D22F0070191B0D1E90001CDE95B
:101090000A0101F0D1FF02460B98C00F01D02D20AC
:1010A00007E02068810701D52B2002E0202101EA1A
:1010B000C000032A099001D0072A05DB03464146F8
:1010C000204600F04DFB0BE12078800601D5E06959
:1010D00000E00620B8F1650F814606D0B8F1660F32
:1010E00018D0B8F1670F70D131E00020B9F1110FBD
:1010F000009001DB112301E009F101030AAA01A913
:101100000CA8FFF7E4FEDDE90C70002609F10105EB
:10111000834647E001204B4600904FF000470AAA63
:1011200001A90CA8FFF7D3FEDDE90DB00C995D46CF
:10113000002610B909F101000D18B9EB050003D420
:10114000C0F1FF3609F10105A5EB09002BE0B9F16B
:10115000010F01DA4FF001090020B9F1110F0090E1
:10116000484601DD112300E003460AAA01A90CA8A4
:10117000FFF7ADFEDDE90C704D4600268346207872
:1011800000070AD4AB4500DA5D4601A8012D04DD55
:10119000411911F8011C302907D04F4502DA17F127
:1011A000040F04DA012082460FE06D1EEEE7002FE7
:1011B00002DCED1B3E4403E0781CA84200DD7D1CF0
:1011C000B81B00F1010A4FF000472078000703D454
:1011D000AA4501DB4FF0FF3A0021B7F1004F0DF1B6
:1011E00043088DF8431024D002202B23002F01DA6E
:1011F0007F422D230A21021EA0F1010000DC5FB115
:1012000097FBF1FC97FBF1F201FB1C7C17460CF1FC
:10121000300C08F801CDEEE7A8F101000370218839
:10122000090501D5452100E06521A0F1010800F87C
:10123000011C09980FA9A1EB0807FF1D00B10120AF
:10124000411901EBEA70A1693844081A401EA061F7
:101250002078C00602D42046FFF7E6F8099828B1A6
:10126000D4E901219047206A401C20622078C00602
:1012700022D52046FFF7D8F81EE0002E04DBB34548
:1012800002DD01A8805D00E03020D4E90121904713
:10129000206A401C2062761CAAF101005FEA000A65
:1012A0000AD100F059FAC0680168405CD4E9012114
:1012B0009047206A401C2062281EA5F10105DCDC55
:1012C00007E0D4E9012118F8010B9047206A401C7F
:1012D0002062381EA7F10107F3DC2046FFF7BAF8B9
:1012E000032011B043E610B5436913B1AFF300809A
:1012F00001E0FFF78DFB012010BD127800F1240101
:101300000A7000224A700122EDE711684FF0FF32A7
:10131000E9E710B5436913B1AFF3008001E0FFF7CF
:101320003DFC012010BD128800F1240182840022BE
:10133000C2840122EDE711684FF0FF32E9E70000B7
:101340002DE9F34F4FF0000A0C4656468DB00120B0
:101350000C9001F10C000B9062690B9801219047F1
:1013600005002DD0252D2CD0216A8847C0B1626997
:101370000B9801219047216A88470028F7D16269BC
:10138000411E0B98904700E0761CA1690D98884794
:10139000216A88470028F7D1E1690D988847DBE783
:1013A000A1690D988847A842074601D1761CD3E76A
:1013B000E1690D9888477F1C02D1BAF1000F6FD008
:1013C0006BE162690B9800273D46394690472A2811
:1013D00004D162690B98012190470125DFF8D08282
:1013E00062690B9801219047A0F130010A290AD2C5
:1013F0004745E5DC07EB870100EB4107303FDFD4D1
:1014000045F01005ECE7E90601D46FF000476C28C1
:101410000AD04C2814D0682815D06A280DD074281A
:101420001CD07A281AD01DE062690B9801219047E0
:101430006C2802D045F0040514E045F002050DE0EB
:1014400045F020050AE062690B9801219047682861
:1014500002D045F0080505E045F4006562690B9887
:1014600001219047C4E9015765283DD019DC58286F
:101470007AD00CDC452837D004DC252826D041283A
:101480009ED131E046282FD0472899D12CE05B2807
:1014900077D0612828D063287CD0642823D15AE0F3
:1014A000F6E06F2848D008DC66281DD067281BD0DE
:1014B000692821D06E2816D127E0702845D07328DE
:1014C00068D0752847D078280DD14DE0A1690D98D6
:1014D0008847252805463FF469AFE1690D9888479C
:1014E0006D1C3FF46AAFD8E00D9923466A466FF051
:1014F0000100AFF30080C5E045F0400023464FF007
:1015000000026060A80736D43EE0E8077FF447AFEA
:101510002068011D21600068290501D506701BE7C0
:10152000290701D5068017E7A90703D5F117C0E9F8
:10153000006111E706600FE745F0400023464FF0D9
:1015400008026060A80716D41EE040F60E0125EAE6
:101550000100606016E045F0400023464FF00A02AB
:101560006060A80707D40FE045F040006060A8075E
:1015700008D5234610220D996FF00100AFF30080CB
:1015800080E007E0102223460D996FF00100FFF77D
:10159000DBF877E04FF0000963284F46C8464B461A
:1015A000CB4602D05B2806D038E0E80601D4012003
:1015B000A060012732E06269D4F80CB00B980121D9
:1015C00090475E2807D14FF0010949466269D4F877
:1015D0000CB00B989047216939B900210A4603AB3A
:1015E00043F82120491C0829FADBD8B3216949B303
:1015F00008F1010862690B98012190475D28F4D138
:10160000B9F1000F09D0002003A951F82020D243DE
:1016100041F82020401C0828F7DB03AB2069002894
:1016200020794FEA40701ED05B462246CDF80080FC
:10163000CDE901970D9900286FF0010020DAAFF392
:1016400000801FE0C11703AA00EBD1614B1121F00C
:101650001F0102EB8302411A1368012088400343F3
:101660001360C7E719E00D99224600286FF00100CA
:10167000009702DAAFF3008004E0AFF3008001E0EE
:10168000AFF3008000280ADA401C06D10C9820B184
:101690004FF0FF300FB0BDE8F08F5046FAE7E90792
:1016A00001D10AF1010A064400200C9054E6000022
:1016B000CCCCCC0C007B00F08000704770B5164697
:1016C0000C46054600F040F8036893F80101012834
:1016D00006D0FF2C0FD8185D68B101202C7070BDAA
:1016E000D3F807013246214603F207130344284684
:1016F000BDE8704018474FF0FF3070BD754600F0F0
:10170000E3F8AE4605006946534620F007008546DB
:1017100018B020B5FEF74CFEBDE820404FF00006A3
:101720004FF000074FF000084FF0000B21F00701C9
:10173000AC46ACE8C009ACE8C009ACE8C009ACE80C
:10174000C0098D467047000010B500F005F8001D77
:1017500010BD00BFD53D000000487047803001201B
:101760002DE9F0411F46044603260168072A01F4CB
:10177000006004DB08B116A505E016A503E008B17A
:1017800015A500E015A521F010002060A069C01E7D
:10179000A0610FB1401EA0612046FEF745FE4FB18B
:1017A000D4E9012138469047206A401C2062C01CC1
:1017B000206206E0206AFAE7D4E9012115F8010B5E
:1017C0009047761EF8D22046FEF744FEBDE8F08131
:1017D0004E414E006E616E00494E4600696E6600D5
:1017E0002DE9F047814616468AB0334878440DC843
:1017F0008DE80D0030487844801C03AC0DC884E8A7
:101800000D0041F69B300844372190FBF1F290FB2C
:10181000F1F5A5F1800501FB12041B3C02D56442E1
:10182000012000E00020DFF890A080460027FA4465
:10183000AAF1BE0A0DE0E00709D03246684607EB80
:1018400047010AEB810100F008FB8DE807006410F6
:101850007F1C002CEFD1184F7F44AC3F18E0E80705
:1018600014D007EB04100DF1180A90E80E008AE876
:101870000E00C068F04201D198190890324606A9BE
:1018800003A800F0EAFA03AB83E807006D10641CBC
:10189000002DE4D132466946B8F1000F03A802D00A
:1018A00000F0C7FA01E000F0D8FAC9E90001C9F870
:1018B00008200AB0BDE8F087C44600000446AFF334
:1018C00000802046FEF7FFFC004870476030012092
:1018D0004FF0013C50F8042B51F8043B9A4221D1BF
:1018E000A2EB0C03934313EACC1317D150F8042B4B
:1018F00051F8043B9A4215D1A2EB0C03934313EA2F
:10190000CC130BD150F8042B51F8043B9A4209D167
:10191000A2EB0C03934313EACC13DBD04FF000008F
:10192000704700BFD01A01BAB1FA81F101F0180175
:1019300022FA01F0CB40C1F12001DBB2C0B2C01AE3
:101940002CFA01F3D11A914311EAC311E6D1704781
:101950005FEA400C08BF91F0000F4FEA8C234FEA7A
:10196000C12243EA51514FEA1C5018BF00F5F04024
:101970004FEA300018BF41F000415FEA6C5C00F0B4
:101980002980BCF1FF3F08BF40F080407047130C36
:1019900006BF12044FF0100C4FF0000C130E04BFE2
:1019A00012020CF1080C130F04BF12010CF1040C0D
:1019B000930F04BF92000CF1020CD30F04BF52002E
:1019C0000CF1010C11464FF00002A0F11F00A0EB3A
:1019D0000C00704711F0004F08BF704731F0004114
:1019E0003FF4D5AF0B0C06BF09044FF0100C4FF0BD
:1019F000000C0B0E04BF09020CF1080C0B0F04BF06
:101A000009010CF1040C8B0F04BF89000CF1020CCE
:101A1000CB0F04BF49000CF1010CCCF12003A0EB6B
:101A20000C0022FA03F302FA0CF241EA030100F17E
:101A30000100704720F07F4C80EA030023F07F47CD
:101A4000ACEB070303F57C5300F0004003F1FF0308
:101A50002DE980494FEA154B09B44FEA144325EAB2
:101A60000B4E24EA03480FF2042606EB132749081D
:101A70003E785FEA320203FB0667C7F5000707FB03
:101A800006F64FEA54374FEAD64606F1020607FB40
:101A9000066CCCF1005C4FEA1C472CEA074C07FBB4
:101AA00006F40CFB06F504EB15464FEA961634BF18
:101AB00000204FF000404FEAD13706FB07FC4FEA09
:101AC0001C4C0CFB0BF7D21B03FB0CF761EB070163
:101AD0000CFB0EF7B0EB074072EB17420CFB08F75C
:101AE00034BFA2EB0742B2EB074261EB17414FEA6A
:101AF0000C444FEA910706FB07FC4FEA1C4C0CFB19
:101B00000BF7B0EBC74072EB573203FB0CF734BF57
:101B1000A2EBC742B2EBC74261EB57310CFB0EF7A9
:101B2000B0EBC70072EB57720CFB08F734BFA2EBA7
:101B3000C702B2EBC70261EB5771039F4FEA8161A5
:101B400041EA921104EBCC044FEAD1374FEA8262AA
:101B500006FB07FC42EA90124FEA80604FEA1C4CF9
:101B60000CFB0BF7D21B03FB0CF761EB07010CFB23
:101B70000EF7B0EB074072EB17420CFB08F734BFCF
:101B8000A2EB0742B2EB074261EB17414FEA8C55DB
:101B90004FEA910704EB9C2406FB07FC4FEA1C4C20
:101BA0000CFB0BF7B0EBC74072EB573203FB0CF7A3
:101BB00034BFA2EBC742B2EBC74261EB57310CFB1B
:101BC0000EF7B0EBC70072EB57720CFB08F734BF8F
:101BD000A2EBC702B2EBC70261EB577115EB4C25C4
:101BE0004FEA816141EA92114FEA82624FEAD137AE
:101BF00042EA901206FB07FC44F100044FEA8060C1
:101C00004FEA1C4C0CFB0BF7D21B03FB0CF761EBF0
:101C100007010CFB0EF7B0EB074072EB17420CFB11
:101C200008F734BFA2EB0742B2EB074261EB174162
:101C300015EB1C154FEA813141EA92414FEA82329D
:101C400042EA90424FEA80304FEA0C7644F10004B9
:101C500048EA03434EEA0B484FF0000EB2EB080C83
:101C600071EB030724BF624639464EEB0E0E4FF070
:101C7000000B0018524149414BEB0B0BB2EB080C27
:101C800071EB03077BF1000B24BF624639464EEB34
:101C90000E0E4FF0000B0018524149414BEB0B0B5D
:101CA000B2EB080C71EB03077BF1000B24BF62461B
:101CB00039464EEB0E0E51EA020718BF46F00106F8
:101CC00016EB0E7655F1000254F1000103D5BDE884
:101CD0008901BDE80088BDE88901BDE80048B61962
:101CE000524141EB0101A3F10103704780807F7EE7
:101CF0007D7C7B7A79787776767574737271717082
:101D00006F6E6E6D6C6C6B6A6A6968686766666533
:101D10006464636362616160605F5F5E5E5D5D5CC1
:101D20005C5B5B5A5A595958585757565655555532
:101D30005454535352525251515050504F4F4F4E92
:101D40004E4D4D4D4C4C4C4B4B4B4A4A4A494949E0
:101D50004848484747474746464645454544444422
:101D6000444343434342424242414141002B26D433
:101D7000770021D01CB54FEA370703B44FF01000AD
:101D80004FF010014FF000000FBCBDE810400BF108
:101D9000010BBBF1010F08BF5FEA170722BF12F169
:101DA000010211F101014FF0004143F1000300F085
:101DB000004043EA00007047F9D35708DAE746EAE3
:101DC000064613F1400F4FEA16461FDD13F1200FB0
:101DD000DFBF16430A46002120335B42C8D0C3F15F
:101DE000200746EA064602FA07F74FEA164646EA91
:101DF0000706C3F1200722FA03F201FA07F721FAD6
:101E000003F14FF0000342EA0702B1E746EA020697
:101E100046EA06464FEA164646EA0106BCBF46EACF
:101E20000646360C4FF000034FF000024FF0000161
:101E30009EE72DE9C048934630B491E8380007C8C2
:101E400031EA400C48BF34EA430C03D5FFF7F2FDFA
:101E5000FFF78CFFF0BCBDE800882DE9C048934631
:101E600030B491E8380007C810F0804F08BF13F075
:101E7000804F03D100F005F8FFF778FFF0BCBDE814
:101E8000008820F07F4780EA030023F07F4C07EBB7
:101E90000C03A3F57C5300F00040A3F1FE0392F085
:101EA000000F00F0B38095F0000F00F077802DE96F
:101EB00001494FEA11404FEA144621EA004800FB6D
:101EC00006FC24EA064708FB06F607FB08F800FBB9
:101ED00007F718EB06484CEB164C4FEA124B18EB81
:101EE00007484FEA15464CEB174022EA0B4E0BFB16
:101EF00006FC25EA06470EFB06F607FB0EFE0BFB6B
:101F000007F71EEB064E4CEB164C4FF000061EEB8F
:101F1000074E4CEB174B18EB0B0840F1000018EB89
:101F20000E0B58EB000840F100008F1A4FF0000133
:101F30003CBFC943661B14BFB5EB040C00213CBF7A
:101F4000C943F61B4FEA17444EEA8E0E27EA0445B2
:101F50004FEA1C4704FB07622CEA074C05FB07F716
:101F60000CFB05F604FB0CFC16EB074642EB174294
:101F700016EB0C4642EB1C421BEB060658EB02022A
:101F8000414146EA9E0601D5BDE80189B619524194
:101F900041EB0101A3F10103BDE801894FEA1445BA
:101FA0004FEA114724EA054621EA074C05FB07F4EE
:101FB00006FB07F70CFB06F105FB0CFC11EB0741D8
:101FC00044EB17444FEA124711EB0C4144EB1C441D
:101FD00022EA074C05FB07F206FB07F70CFB06F6A7
:101FE00005FB0CFC16EB074642EB174216EB0C46C2
:101FF00042EB1C456A1854F1000148BF7047B619FE
:10200000524141EB0101A3F10103704795F0000F2C
:1020100037D04FEA11424FEA144721EA024624EA38
:10202000074C02FB07F106FB07F70CFB06F402FB6B
:102030000CFC14EB074441EB17414FEA154714EB36
:102040000C4441EB1C4125EA074C02FB07F506FB5B
:1020500007F70CFB06F602FB0CFC16EB074645EBFC
:10206000174516EB0C4645EB1C42121951F10001C5
:1020700048BF7047B619524141EB0101A3F101037A
:1020800070474FEA14454FEA114724EA054621EA12
:10209000074C05FB07F106FB07F70CFB06F24FF0B8
:1020A000000605FB0CFC12EB074241EB174112EB5B
:1020B0000C4251EB1C4148BF7047921841EB0101A3
:1020C000A3F101037047FEE7704700000149086073
:1020D00070470000143C014030B51A4A837901680A
:1020E00053B313688B431360111D0B680468A3433B
:1020F0000B60017911440B68046823430B60114B9A
:10210000083319680468A14319601C1D216805681B
:10211000A94321604179102905D011440A6800685B
:1021200002430A6030BD19680268114319602168D2
:1021300000680143216030BD0079104402688A4381
:10214000026030BD003C0140F0B5002201274FF095
:10215000030C0B6807FA02F52B40AB422CD1066842
:1021600053000CFA03F4A64306600E79D0F800E0A1
:102170009E4046EA0E0606600E79012E01D0022E20
:1021800012D18668A64386604E79D0F808E09E405A
:1021900046EA0E0686604668AE43466045688E791C
:1021A0009640B6B235434560C568A543C560CC7955
:1021B0009C40C3681C43C460521C102AC9D3F0BDA4
:1021C0004B07DB0E9A40C90810B500EB8100016A8D
:1021D0000F249C40A1430162016A1143016210BDBA
:1021E0000183704700260F4C0F4D4FF000780127F8
:1021F000C4F8A462C4F8A862C5F8B462C5F8B862AD
:1022000041464046401EFDD2C4F8A472C4F8A872EC
:10221000C5F8B472C5F8B872491EFDD203A0FEF726
:10222000E1F8E5E700804242000042424861726402
:102230004661756C743A506C6561736520636865BE
:10224000636B20636F6465A3AC666F722065786111
:102250006D706C6520737461636B2E2E2E0D0A00F9
:1022600070B5012001F0E8FE0C4D0120C5F8BC025C
:102270000B4EC6F8A802052005F52F7506F52A763F
:1022800001F01AF900243460052001F015F92C60E2
:10229000BDE87040052001F00FB900000080404209
:1022A0000080414270B5012001F0C6FE09480124BA
:1022B000C0F8BC42084D0020C5F8A802052005F56D
:1022C0002A7501F0F9F82C60BDE87040052001F096
:1022D000F3B80000008040420080414210B5002069
:1022E00001F0AAFE094C0120C4F8BC02052004F547
:1022F0002F7401F0E1F80648D0F828020020206091
:10230000BDE81040052001F0D7B800000080404231
:10231000008041427CB50121202000F0A1F901207C
:102320008DF8040000228DF8062003218DF8051099
:10233000074D4FF4C0648DF80700009469462846A5
:10234000FFF702FF21462846FFF74AFF7CBD000049
:1023500000140240FEE7704730B50F23C2780178C1
:102360000125FAB1144A126801F1E02102F4E06299
:10237000C2F5E062C2F30722C2F10404D3404278FE
:10238000A24084781C401443220181F80024007884
:1023900000F01F018D404009800000F1E020C0F8EE
:1023A000005130BD01F01F0085404809800000F158
:1023B000E020C0F8805130BD0CED00E00249084338
:1023C00002490860704700000000FA050CED00E0CB
:1023D00070B50025002105F1B00000F034F90021AE
:1023E000084600F030F90021102000F02CF90024FC
:1023F0000121002000F027F9641CE4B2802CF7D3FF
:102400006D1CEDB2082DE5D370BD00007CB5012137
:10241000022000F025F90121082000F021F9012413
:102420008DF804404FF400408DF8064003260090DC
:102430008DF8056000258DF8075069464348FFF781
:1024400083FE8DF80440A0028DF8064000908DF8C0
:1024500005608DF8075069463D48FFF775FE3D4819
:10246000C0F8BC423C48C0F8A842C82001F008F8B7
:102470000021AE2000F0E7F80021084600F0E3F864
:102480000021102000F0DFF80021402000F0DBF8F0
:102490000021B02000F0D7F80021812000F0D3F80F
:1024A0000021FF2000F0CFF80021A12000F0CBF8A0
:1024B0000021A62000F0C7F80021A82000F0C3F8F2
:1024C00000213F2000F0BFF80021C82000F0BBF839
:1024D0000021D32000F0B7F80021084600F0B3F83F
:1024E0000021D52000F0AFF80021802000F0ABF8EB
:1024F0000021D82000F0A7F80021052000F0A3F863
:102500000021D92000F09FF80021F12000F09BF875
:102510000021DA2000F097F80021122000F093F853
:102520000021DB2000F08FF80021302000F08BF834
:1025300000218D2000F087F80021142000F083F89E
:102540000021AF2000F07FF87CBD000000040240B5
:10255000000C0240008040420080414210B50A4613
:102560000446002102F1B00000F06DF8102040EAAE
:102570001410002100F067F804F00F00BDE81040CF
:10258000002100F060B800002DE9F041203A00245D
:102590000F468046D5B27F2803D900208F1C804685
:1025A000FFB2102B394610D0FFF7D8FF164905EBC4
:1025B000450001EB40050121285D00F044F8641C52
:1025C000E4B2062CF7D3BDE8F081FFF7C7FF0F4E4A
:1025D00004EB05100121305C00F035F8641CE4B216
:1025E000082CF5D37F1CF9B24046FFF7B7FF002453
:1025F00004EB051030440121007A00F024F8641C3B
:10260000E4B2082CF4D3DEE7DC55000804580008D7
:102610002DE9F041984617460E46044600250DE088
:10262000434631462046FFF7AFFF0834E4B2782C2A
:1026300002D90024B61CF6B26D1CEDB27A5D002AF8
:10264000EED1BDE8F081C0B209B100F0DEBC00F00F
:10265000C5BC0000014908627047000000000E423E
:10266000044A0029116801D0014300E08143116050
:102670007047000030380240044A0029116801D038
:10268000014300E081431160704700004038024080
:10269000044A0029116801D0014300E08143116020
:1026A000704700004438024070B5204B1968204C38
:1026B00011F00C0104D06610042903D0082903D0BE
:1026C00004601BE0066019E0184A121F1168C1F38C
:1026D0008055116801F03F0115B1B6FBF1F101E041
:1026E000B4FBF1F114681268C4F388146143C2F3B7
:1026F0000142521C5200B1FBF2F1016019680F2235
:1027000002EA11110B4A545C0168E14041601C6807
:10271000072505EA9424145D21FA04F484601B68FB
:1027200005EA5333D25CD140C16070BD0838024025
:102730000024F4004C000020024600205109012929
:102740000BD002290CD00849096802F01F020123AE
:1027500093400B4200D00120704703497439F3E7DE
:102760000149091FF0E700007438024005490022C2
:102770000A700A70012802D0042801D105200870CF
:10278000704700007038024001490860704700003F
:102790003C0E4742C0F30121032907D1074B1968BA
:1027A000074A21F4F81102400A431A6003496831CC
:1027B0000A68C0F30B0002430A6070470838024001
:1027C000FFFCFF0F010901EB810100F00F0000EB9E
:1027D0004100C0B27047002103E0491C0A38C9B269
:1027E000C0B20A28F9D2090740EA11607047000018
:1027F000C0F30F1040F08000C1430348026802F0AC
:1028000080021143016070470C28004008B50D4953
:10281000002000900868400612D44FF0FF30086096
:102820008B130868009A00F04000521C00929A42F4
:1028300001D00028F5D00868400601D4002008BD6A
:10284000012008BD0C2800400248016821F08001E9
:10285000016070470C280040020010B50F480C467C
:1028600001680F4801EA00014FEA1140E070C1F32E
:102870000423637001F03F03A370C1F34231217060
:102880000AD1FFF79FFFE0706078FFF79BFF607051
:10289000A078FFF797FFA07010BD0000042800404B
:1028A0003FFFFF000B4A0021126802F00403094AAF
:1028B000383A126803EAD03302401A43064B1B68C9
:1028C00003EA101003D00004000C00D001210846D8
:1028D00070470000402800400C280040020010B55E
:1028E00010480C460168104801EA0001C1F3054098
:1028F0002070C1F30623637001F07F03A3704FF0D3
:10290000400303EA1141E1700AD1FFF75BFF207039
:102910006078FFF757FF6070A078FFF753FFA07053
:1029200010BD0000002800407F7F7F0030B50E4DB5
:10293000CA222A6053222A600B4C0B4B1C3C1C33CE
:10294000002920F00402216800F0040004D01143A3
:1029500021601968014303E09143216019688143B4
:102960001960FF20286030BD2428004070B5124D4A
:1029700004460026CA20286053202860FFF746FF3F
:10298000A8B10D481C38016821F0400101600168C0
:102990002268114301600848A16814380160016889
:1029A000A28841EA02410160FFF74EFF0126FF20A5
:1029B0002860304670BD00002428004070B50C46E9
:1029C0000026010060780FD0FFF7FCFEA078FFF72B
:1029D000F9FEA078E17840EA0145607821780002AC
:1029E00040EA4130054315E0C10603D520F0100050
:1029F0000A306070E078FFF7EEFE05046078FFF7BC
:102A0000EAFE45EA0025A078FFF7E5FE05432078B9
:102A100045EA40350D4CCA20206053202060FFF766
:102A2000F5FE78B10A480540084820380560FFF7F0
:102A30000BFF06481C380068800602D400F098F8A6
:102A400000B10126FF202060304670BD24280040E0
:102A50003FFFFF002DE9F0410C460026234F010007
:102A60002078396832464FEA416104D0002930DAD3
:102A7000FFF7A8FE2EE0002900DBE270FFF7ABFEB7
:102A800005046078FFF7A7FE45EA0025A078FFF768
:102A9000A2FE0543E07845EA0045144CCA201C34E8
:102AA000206053202060FFF7B1FE68B11048054058
:102AB0000E4808380560FFF7C7FE3868800602D464
:102AC00000F056F800B10126FF2020603046BDE836
:102AD000F081E270A078217840EA01456078E178E1
:102AE000000240EA01400543D7E700000828004003
:102AF0007F7F7F000549CA220A6053220A60034A89
:102B0000103A1060FF200860704700002428004041
:102B100038B5002000905020EFF3118480F3118825
:102B2000BFF34F8FBFF36F8F4FF480452846FFF7F9
:102B3000B9FE01280BD10C486A461021006801F04B
:102B40006BFE2846FFF754FE2802FFF7BFFA0098F5
:102B500038B106494FF080500860BFF34F8FBFF384
:102B60006F8F84F3118838BD0800002004ED00E069
:102B700018B50020104B0090CA2018605320186030
:102B80000D491839086820F0A00008604FF400349F
:102B90000868009A00F02000521C0092A24201D066
:102BA0000028F5D00868800601D5012000E000204B
:102BB000FF21196018BD000024280040084ACA21DE
:102BC00011605321116006491C390B6823F007037B
:102BD0000B600B6803430B60FF2010607047000020
:102BE0002428004018B50021134B0091CA21196018
:102BF0005321196010491C390028086803D040F49B
:102C00008060086014E020F4806008600A49183988
:102C10008C130868009A00F00400521C0092A24233
:102C200001D00028F5D00868400701D4002000E05A
:102C30000120FF21196018BD242800400CB5002296
:102C4000274900920192086840F4803008604FF4F0
:102C5000A043086800F4003001900098401C0090E8
:102C6000019810B900989842F3D10868800334D5D0
:102C7000012001901A484030026842F08052026000
:102C80001848026842F44042026015480830026861
:102C90000260026842F400420260026842F4A052FC
:102CA0000260031F104A1A600A6842F080720A60CC
:102CB0000A689201FCD50D4940F205720A6001686C
:102CC00021F003010160016841F002010160016827
:102CD000C1F381010229FAD10CBD01920CBD0000A3
:102CE000003802400070004008544007003C024099
:102CF0004FF0E0210428086903D020F004000861A7
:102D0000704740F00400FAE710B5502080F31188B6
:102D1000BFF34F8FBFF36F8F02F0E6F918B104498C
:102D20004FF080500860002080F3118810BD000033
:102D300004ED00E0124810B5016841F47001016033
:102D40001048016841F0010101600E4A002108327B
:102D5000116002680C4B1A400260031D0B4A1A6096
:102D6000026822F48022026006480C300160FFF7FE
:102D700065FF03494FF000608039086010BD000016
:102D800088ED00E000380240FFFFF6FE103000241E
:102D90002DE9F84300255020EFF31184009580F3CE
:102DA0001188BFF34F8FBFF36F8F1B4F40F2255831
:102DB0004146384600F04AF8F8B1384600F0D4F8F9
:102DC000174EC1B2154A30681154401C3060232997
:102DD00001D040280DD382F84000124800236A46F3
:102DE0000E49006801F050FF41210C48FDF7B1FD8C
:102DF00035604146384600F019F8009838B10A4964
:102E00004FF080500860BFF34F8FBFF36F8F84F394
:102E10001188BDE8F883000000100140D0000020B8
:102E2000440000201400002004ED00E00A0A012103
:102E30009140C943018070470029818902D041F443
:102E4000005101E021F400518181704770B501F01B
:102E50001F0501260024C1F3421306FA05F2012BD7
:102E60000FD0022B0FD0838A4FEA11210088134222
:102E700006FA01F600EA060001D000B1012420465E
:102E800070BD8389F0E7038AEEE710B5C1F3421302
:102E900001F01F040121A140012B07D0022B07D014
:102EA0001430002A026805D00A4304E00C30F8E729
:102EB0001030F6E78A43026010BD00007FB504467B
:102EC000008A0D46C98820F4405001432182A08920
:102ED00041F20C618843A9882A8911436A89024317
:102EE0001143A181A08A20F44071A8890843A082DF
:102EF0006846FFF7D9FB1A48844202D01948844239
:102F000001D1039800E00298A189090400EBC001F7
:102F100001EB0010296801D5490000E08900B0FBF1
:102F2000F1F06422B0FBF2F109010B096FF0180512
:102F30006B4300EB8300A3891D044FF0320306D5D9
:102F400003EBC000B0FBF2F000F0070005E003EB7C
:102F50000010B0FBF2F000F00F00084320817FBDAD
:102F600000100140001401408088C0F30800704741
:102F7000FEE700002DE9F0478146012001F05CF8F2
:102F8000144D0026C5F8BC62134FC7F8A86205208F
:102F900000F092FA07244FF0010AA8460AFA04F05A
:102FA000554610EA090F02D0C7F8A85201E0C7F849
:102FB000A862052000F080FAC8F8BC52052000F095
:102FC0007BFAC8F8BC62052000F076FA641EE5D5ED
:102FD000BDE8F087008040420080414210B50446C1
:102FE000FFF73EF97820FFF7C5FFFFF777F90020DC
:102FF000FFF7C0FFFFF772F92046FFF7BBFFFFF7AF
:103000006DF9BDE81040FFF74DB910B50446FFF764
:1030100027F97820FFF7AEFFFFF760F94020FFF7B0
:10302000A9FFFFF75BF92046FFF7A4FFFFF756F96A
:10303000BDE81040FFF736B903B40198410000988D
:1030400050EAC12018BF04204A0D18BF40F001000B
:1030500040F2FF72B2EB515F08BF40F0020001285E
:1030600008BF052002B0704730380A2801D201207D
:1030700070470020704770478EB00024029403947C
:103080000494059406944FF4FA65079402A800F09E
:1030900065FA00282ED107949DF80910059406942E
:1030A0009DF80800CDE9000104949DF80B309DF8CF
:1030B0000A2012A104A8FDF7A1F906208DF820002E
:1030C00010208DF8280004A8099010488DF82140A0
:1030D0008DF822400023642208A9806901F022FDB6
:1030E0000146012802D00AA000F000FA04A917A0A6
:1030F00000F0FCF9284601F045F9C7E7543A256489
:103100002E256420483A25642E2564000000002006
:103110005B6170705F7461736B5F6468745D20786D
:10312000517565756553656E64206F6C65642073B9
:103130007472696E67206572726F7220636F646566
:103140002069732025640D0A000000005B61707027
:103150005F7461736B5F6468745D2025730D0A0092
:103160007CB50024012001F05DFC1D4DE8600120CC
:1031700001F058FC286101F0FBFAA860002241210F
:10318000042001F061FC686100221421102001F08C
:103190005BFCA86100F0C2F9FFF7BCF8FFF736F955
:1031A00000F0D6FE01F01CF80E4D0BE005EBC1015E
:1031B000D1E90423CDE900230A89CB68496801F0ED
:1031C00053FF641C04EB440155F831000028EDD195
:1031D00001F026F8BDE87C40002001F0F9B80000BD
:1031E000000000206455000886B0FFF7F1F80E4C8F
:1031F0004FF0FF352A466946A06901F0A3FD01287A
:10320000F8D10AA0019900F071F99DF80000062894
:10321000F0D19DF808309DF802109DF80100019A48
:10322000FFF7F6F9E6E700000000002025730D0A1D
:10323000000000008EB00025354C029503950495E2
:1032400002AF6E1E4FF010084FF00609059500966C
:10325000002301221021A06801F0E6FA1028F6D11F
:10326000207840BB0CA90120FFF738FB029505959B
:103270009DF832000090039504959DF831309DF83B
:10328000302024A102A8FDF7B9F88DF819500420C8
:103290008DF81A008DF818908DF8208002A921A0D1
:1032A000079700F023F90023324606A9A06901F030
:1032B00039FC0128CBD160780128C8D10BA9FFF7D0
:1032C000CBFA9DF82C1005959DF82E00CDE9000154
:1032D0000295039504959DF82D309DF82F2015A19A
:1032E00002A8FDF78BF88DF8195002208DF81A000E
:1032F00002A915A000F0FAF88DF818908DF820803A
:1033000007970023324606A9A06901F00BFC9EE74F
:1033100000000020253032783A253032783A2530C6
:103320003278000073686F772074696D65202573AB
:103330000D0A00003230253032782D253032782DBC
:10334000253032782D25640073686F7720646174AE
:10335000652025730D0A000096B00020254C451EFF
:10336000139025A000F0C2F82A4601A9606901F077
:10337000E9FC0128F5D122A101A8FDF78BFA18B1CB
:1033800001A920A000F0B2F827A101A8FDF782FA58
:103390000028E6D013A8009015AB14AA25A101A817
:1033A000FDF7B4F914980A23B0FBF3F101EB4101E6
:1033B00000EB410015991490B1FBF3F202EB4202CD
:1033C00001EB4201139A1591B2FBF3F303EB4303B4
:1033D00002EB430240238DF84B308DF848008DF806
:1033E000491013928DF84A2012A90120FFF732FBF1
:1033F000B7E7000000000020746573740D0A000038
:10340000676574005B6170705F7461736B5F757387
:10341000617274315D2078517565756553656E64B0
:103420002025730D0A00000054494D452053455492
:103430000000000054494D45205345542D25642D6E
:1034400025642D256423000010B504460420FFF7F1
:103450004FFC0A484FF47A71047014FB01F1012209
:1034600042804FF0E020026942F0020202614161B5
:10347000016941F00101016110BD00004000002020
:1034800070B5044601F01CFE01280CD0094D688877
:10349000844203D3B4FBF0F000F074FF6888B4FBFF
:1034A000F0F100FB11444FF47A706043BDE87040C6
:1034B00000F002B84000002070B54FF0E025002178
:1034C0006C69094AAB6912785043AA699A42FCD0E8
:1034D00002D2A3EB020302E0A4EB02063344194438
:1034E00013468142F1D370BD400000200FB44FF06D
:1034F000FF3170B5084D05ACE86801F0BFFC21460E
:103500000498FCF769FF00231A461946E86801F0A1
:1035100009FB70BC5DF814FB000000201CB5012104
:103520004020FFF79DF84FF40070012400908DF8C3
:1035300004408DF8064003208DF8050000208DF82A
:10354000070069460348FEF7FFFD0348C0F8A442A0
:103550001CBD000000180240000043422DE9FC5F42
:103560004FF0010A8DF804A000248DF806A04FF05A
:10357000030B80464FF400798DF805B05746CDF81F
:10358000009026468DF8074069464848FEF7DCFD66
:10359000474DC5F8A4621420FFF772FFC5F8A47266
:1035A0001E20FFF789FF8DF804608DF805B0CDF877
:1035B00000908DF8076069463C48FEF7C5FD4FF462
:1035C0007A6609E00120FFF777FF641CB44203D359
:1035D0004FF0FF30BDE8FC9FD5F824020028F1D160
:1035E000002408E00120FFF767FF641C642C02D36D
:1035F0006FF00100EEE7D5F824020028F2D0002495
:1036000008E00120FFF758FF641C642C02D36FF020
:103610000200DFE7D5F824020028F2D10027A946EE
:1036200000260725002408E00120FFF745FF641C61
:10363000642C02D36FF00300CCE7D9F824020028F1
:10364000F2D02820FFF738FFD9F8240290B10AFA07
:1036500005F03043C6B2002408E00120FFF72CFF3C
:10366000641C642C02D36FF00400B3E7D9F8240281
:103670000028F2D16D1ED5D508F807607F1C052FF4
:10368000CEDB98F8001098F8010098F80220014469
:1036900098F803001044084498F80410C0B281421E
:1036A00002D06FF0050095E7002093E70018024074
:1036B0000000434203490A885206FCD5C2B28A8000
:1036C00070470000001001401CB54FF44070FEF739
:1036D00075FEA820FFF7B8FE4FF4165000F0C2FCAC
:1036E00006490520CDE9000100234FF4007204A132
:1036F000074801F0B9FC00F0B7FFFEE70400002026
:103700006170705F7461736B5F696E697400000053
:10371000613100082DE9F041184E0F460446F56866
:103720003068001D00F0F6FC38B9306890F82C10B5
:1037300001208840316981433161601C07D137B174
:103740003168BDE8F0410E48091D00F03DBD30680C
:103750002C44AC424460316805D2B06BBDE8F04106
:10376000091D00F019BD706B091D00F015FDB06A50
:10377000844200D2B462BDE8F08100005C00002009
:10378000240400202DE9F041054600F029FD2D4ECE
:10379000B068401CB06030682B4F10B1706930B316
:1037A0002BE03560B068012827D1002404EB8400A9
:1037B00007EB800000F0E2FC641C202CF6D32348C9
:1037C00000F0DCFC2148143000F0D8FC1F48283001
:1037D00000F0D4FC1D483C3000F0D0FC1B485030B9
:1037E00000F0CCFC194870631430B06305E0306819
:1037F000E96AC06A884200D83560706A0121401CBD
:1038000070622864E86A326981401143316100EBDB
:10381000800007EB8000291D00F0D6FC00F000FDC1
:10382000706900280CD03068E96AC06A884207D203
:1038300007494FF080500860BFF34F8FBFF36F8F81
:10384000BDE8F0815C00002054010020D40300207A
:1038500004ED00E010B500F0C3FC0E4C2068A0B9E8
:103860000D4800F08BFC0C48143000F087FC0A482F
:10387000E06014302061002210210A2001F0E4F8F9
:10388000206010B105A100F049FDBDE8104000F036
:10389000C7BC00009800002038040020546D72510D
:1038A0000000000030B4026C0B46002A0BD0C16847
:1038B0001144C1604468A14201D30168C16030BCB9
:1038C0001846FCF7F9BF30BC70472DE9F041856B15
:1038D000174604460026026C82B1C7B1E068FCF7C7
:1038E000EBFFE168206C091AE1602268914202D284
:1038F0006168081AE060022F16D017E02068A8B9A6
:10390000606801F05BFC0646002060600EE0A06885
:10391000FCF7D2FF216CA0680844A060616888426F
:1039200004D32068A06001E005B16D1E6D1CA56385
:103930003046BDE8F08110B50446006B00F084FC11
:103940002046BDE8104000F07FBC000010484FF456
:103950009631420706D0C01D0D4920F00700411ADC
:10396000C1F596310B4A00230144C2E9000308392E
:10397000103A21F0070111604B600B600B1AC0E98F
:10398000001393604FF000405360D0607047000018
:1039900060040020BC000020144E154DA6F52F77C2
:1039A0004FF08058DFF84C9011E000F019FCF068FF
:1039B000C468201D00F0AEFBA868401EA8606868BF
:1039C000401E686000F02CFC2046FFF7B4FF6868DA
:1039D0000028EAD13868012805D9C9F80080BFF36A
:1039E0004F8FBFF36F8F00F0B5FBF0E7100400209E
:1039F0005C00002004ED00E02DE9F0470E46DDE913
:103A000009841746824691009946089DA522206B9D
:103A1000FCF797FF6FF00301206B01EB870108446F
:103A200020F00707780707D0502080F31188BFF3F4
:103A30004F8FBFF36F8FFEE72218315C82F834108E
:103A4000315C11B1401C0A28F6D3002684F83D6091
:103A5000202D00D31F25E562C4E91256201D00F079
:103A600098FB04F1180000F094FB2461C5F12000DC
:103A70006462A061266584F854604A46514638461F
:103A800000F050FA2060B8F1000F01D0C8F80040F3
:103A9000BDE8F08730B5114900E011460A6882425E
:103AA000FBD34B685C18844203D1406818444860DB
:103AB000084643681C18944209D1084C103C2468FD
:103AC000A24209D052681A4442600A681268026031
:103AD000814200D0086030BD0460F9E7BC000020DE
:103AE00070B5002441600B4D0061914206D8D11A97
:103AF0008269914206D2011D286907E09A4203D2E9
:103B0000994201D3012403E0011DE86800F044FB61
:103B1000204670BD9800002010B5044600F060FB00
:103B2000A06B20B1002400F07BFB204610BD0124D7
:103B3000F9E7000030B587B02E4D52E0019800281B
:103B400006DADDE90301029A90470198002848DB74
:103B5000039C606910B1201D00F0DCFA05A800F09C
:103B6000B5F8024601980A283BD2DFE800F00505C7
:103B7000053A263705053A260298A169034601440D
:103B80002046FFF7ADFF00B3616A20468847E06931
:103B9000012826D1002000900298A1690023421834
:103BA0001946204601F064FC78B9502080F3118852
:103BB000BFF34F8FBFF36F8FFEE70298A06128B16C
:103BC000811813462046FFF78BFF0AE0502080F350
:103BD0001188BFF34F8FBFF36F8FFEE7204600F0D1
:103BE00033FB002201A9286801F0ACF80028A5D118
:103BF00007B030BD980000202DE9FC410E46054677
:103C000000F06AFD01A800F061F80446019818B1BF
:103C100001F0A6FBBDE8FC81224FAEB13869006817
:103C2000A8B30026291B3246386800F089FB01F052
:103C300097FB0028EED11C494FF080500860BFF37D
:103C40004F8FBFF36F8FE5E7A542EBD801F088FBFC
:103C5000F8682646C068C468201D00F05BFAE06979
:103C6000012810D1A0692B46411932462046FFF7A2
:103C700037FF40B100200346014600902A46204607
:103C800001F0F6FB20B1616A20468847C2E707E0F1
:103C9000502080F31188BFF34F8FBFF36F8FFEE783
:103CA0000126BFE79800002004ED00E00648416BC4
:103CB000096829B1416BC968C96849688162704760
:103CC0004FF0FF31FAE700005C00002070B50546B8
:103CD00001F004FA064E0446B068844203D200F0B4
:103CE00009F8012000E0002028602046B46070BD83
:103CF00098000020F8B5194E1FE0C068C468056838
:103D0000201D00F007FA616A20468847E069012813
:103D100013D1A0692844A84206D924616060211DFE
:103D2000F06800F039FA08E00020034601460090F0
:103D30002A46204601F09CFB38B1F0680168002952
:103D4000DBD13169C6E90310F8BD502080F311883A
:103D5000BFF34F8FBFF36F8FFEE700009800002086
:103D600008484068401C4FF0500080F3118804D090
:103D7000BFF34F8FBFF36F8FFEE7BFF34F8FBFF3DC
:103D80006F8FFEE7C40000200346002012B1994364
:103D900002D070470B42FCD001207047084CE0680D
:103DA000016839B1002139B10020FFF725FFFFF785
:103DB000C1FEF4E70121F6E7C0680068F5E70000FE
:103DC000980000202DE9F041044600F009FA94F92A
:103DD000455004F1240609E0606A48B1304601F01C
:103DE00083FA08B100F052FB6D1E6DB2002DF3DCBA
:103DF0004FF0FF3684F8456000F012FA00F0F0F959
:103E000094F9445004F1100709E0206948B138469C
:103E100001F06AFA08B100F039FB6D1E6DB2002D99
:103E2000F3DC84F84460BDE8F04100F0F9B900002B
:103E30002DE9F0410546002600F04EFC324F38686F
:103E400008B9FFF783FDF86805424BD1C5B30835C3
:103E500068070ED005F00700C0F1080005446807A8
:103E600007D0502080F31188BFF34F8FBFF36F8FBF
:103E7000FEE72DB37868854234D8234910310846CF
:103E8000046801E0214604466068A84202D2206826
:103E90000028F7D13868844224D00E682068086072
:103EA00060680836411B10290FD96019420708D0F5
:103EB000502080F31188BFF34F8FBFF36F8FFEE761
:103EC00010E041606560FFF7E5FD61687868401AC1
:103ED0007860BA68904200D2B860F8680143002068
:103EE000C4E9000101F03CFA0EB900F034F97007A2
:103EF00007D0502080F31188BFF34F8FBFF36F8F2F
:103F0000FEE73046BDE8F081AC00002004490868B7
:103F100018B10868C26C521CC2640868704700007F
:103F20005C00002010B5031F4FF080741C601B1F45
:103F300021F001011960191F044B0B6014390A604C
:103F4000091F6FF0020244380A6010BD613D00088D
:103F500070B5012188B00807FEF78EFB0120FEF73F
:103F600079FB0120FEF702FC4120FEF7E5FB00286B
:103F7000FAD04FF48070FEF70DFC0120FEF704FC30
:103F8000FEF7F6FD7F200490FF20002505900395A5
:103F900003A8FEF7EBFC22208DF80B0011208DF812
:103FA000090007208DF80A0001248DF8084002A9B5
:103FB0002046FEF703FD40208DF81B0020208DF8E1
:103FC000180027208DF8190055208DF81A0006A931
:103FD0000120FEF73FFD0020FEF704FE0420FEF75F
:103FE000EDFD0020FEF786FDA6033046FEF700FC3F
:103FF00001213046FEF79AFC0120FEF7F3FDA005F3
:1040000000908DF8045008208DF805008DF80640CA
:104010006846FEF761F803208DF81C0005208DF836
:104020001D0006208DF81E008DF81F4007A8FEF722
:1040300093F908B070BD00001CB54FF480618DF895
:10404000040001208DF8060003208DF805000020F3
:1040500000918DF8070069460148FEF775F81CBD10
:10406000000C0240F0B50746012187B00846FEF774
:10407000F7FA01211020FEF70BFB244E072209213D
:104080003046FEF79DF807220A213046FEF798F8E1
:104090004FF4C060049002208DF814008DF81500D4
:1040A00000248DF8164001258DF8175004A93046DC
:1040B000FEF74AF8ADF80440ADF80640ADF8084008
:1040C000ADF80C400C20124CADF80A000097694680
:1040D0002046FEF7F3FE01212046FEF7ADFE012249
:1040E00040F225512046FEF7D0FE25208DF818001D
:1040F00005208DF8190006208DF81A008DF81B5048
:1041000006A8FEF729F907B0F0BD00000000024044
:1041100000100140D0E9013201699A60D0E9012321
:104120005A604A68824201D182684A600022026174
:104130000868401E08600868704700000449086865
:104140000A688069D26A0968C2F120028A617047F0
:104150005C0000207047502080F31188BFF34F8F20
:10416000BFF36F8FFEE7502080F31188BFF34F8FAE
:10417000BFF36F8FFEE7704700F007BB00F1080147
:104180004FF0FF32C0E90112C160016100210160FE
:10419000704700210161704730B50C68621C02D085
:1041A00000F1080202E0026904E01A4653681D6843
:1041B000A542FAD953684B6099608A6051600861E2
:1041C0000168491C016030BD42684A6093688B6099
:1041D00093685960916008610168491C01607047EB
:1041E000502080F31188BFF34F8FBFF36F8F0A49C0
:1041F0004868401C486001280CD10848006810F04D
:10420000FF0F07D0502080F31188BFF34F8FBFF30B
:104210006F8FFEE770470000C400002004ED00E04F
:104220000849486828B1401E486001D180F31188D0
:104230007047502080F31188BFF34F8FBFF36F8F0B
:10424000FEE70000C400002070B5002827D0144D00
:10425000A0F108046068E968084207D1502080F3A3
:104260001188BFF34F8FBFF36F8FFEE722683AB11B
:10427000502080F31188BFF34F8FBFF36F8FFEE79D
:104280008843606000F028FA6068696808446860E4
:104290002046FFF7FFFBBDE8704001F061B870BD3C
:1042A000AC0000204FF0E020002101618161054950
:1042B0004FF47A720968B1FBF2F1491E416107219E
:1042C000016170472C00002010B5FCF75FF8114920
:1042D00010280ED300F1E02090F8F0030A78904205
:1042E00007D2502080F31188BFF34F8FBFF36F8F39
:1042F000FEE709480068896800F4E060884207D951
:10430000502080F31188BFF34F8FBFF36F8FFEE70C
:1043100010BD0000C40000200CED00E010B5074BFC
:10432000002253F832401CB1521C082AF9D310BDA8
:1043300043F8321003EBC201486010BD14010020A5
:1043400070B515460E460446FFF74AFF94F944102F
:104350000020491C01D184F8440094F94510491CFF
:1043600001D184F84500FFF75BFFA06B28B92A460E
:10437000314604F1240000F0A7F82046BDE8704063
:10438000FFF720BD10B5020014D00F48006B38B104
:10439000502080F31188BFF34F8FBFF36F8FFEE77C
:1043A00000F09AF900211046FFF7B4F900F0D8FFA9
:1043B000002807D105494FF080500860BFF34F8FA8
:1043C000BFF36F8F10BD00005C00002004ED00E023
:1043D00070B50446FFF704FF244D04B92C68201D76
:1043E000FFF798FE58B9E06A214A00EB800152F8C5
:1043F000211021B901218140286988432861A06AE0
:1044000018B104F11800FFF785FE686A401C686265
:104410002868844207D1211D1648FFF7D5FE686839
:10442000401C686007E0A868401EA8602046FFF7AF
:1044300082FAFFF73BFCFFF7F3FE6869002814D00F
:104440002868844211D1286B38B1502080F311883C
:10445000BFF34F8FBFF36F8FFEE707494FF08050D8
:104460000860BFF34F8FBFF36F8F70BD5C000020FB
:10447000540100201004002004ED00E002490A6A03
:104480000260C968416070475C000020014901205A
:10449000C86170475C00002010B50C4650B1094956
:1044A00009681831FFF778FE2046BDE81040012169
:1044B000FFF730B9502080F31188BFF34F8FBFF35F
:1044C0006F8FFEE75C00002070B514460D4668B1A2
:1044D0000A4909681831FFF777FE0CB14FF0FF3534
:1044E00021462846BDE87040FFF714B9502080F3FC
:1044F0001188BFF34F8FBFF36F8FFEE75C00002082
:1045000010B5144680B1104B1A6BAAB11A6841F06D
:104510000041916119681831FFF756FE2046BDE849
:1045200010400121FFF7F6B8502080F31188BFF347
:104530004F8FBFF36F8FFEE7502080F31188BFF3DA
:104540004F8FBFF36F8FFEE75C00002070B50B4606
:1045500004004BD0E26CA2B1A16C994200D2194682
:10456000E06A884242D0012A40D1214D2A68944213
:104570000FD1502080F31188BFF34F8FBFF36F8F9F
:10458000FEE7502080F31188BFF34F8FBFF36F8F8A
:10459000FEE7E162A269002A02DBC1F12001A1610C
:1045A000144E00EB8000616906EB800081421DD152
:1045B000201DFFF7AFFD012150B9E06A00EB80023A
:1045C00056F8222022B901FA00F2286990432861A6
:1045D000E06A2A6981401143296100EB800006EB03
:1045E0008000211DBDE87040FFF7EEBD70BD0000EA
:1045F0005C0000205401002070B5194D2A6BFAB1FF
:1046000041F000410160C46814B3FFF783FD201D31
:10461000FFF780FDE06A01262A6906FA00F11143DE
:104620002961104900EB800001EB8000211DFFF79C
:10463000CBFDE06A2968C96A884200D9EE6170BD85
:10464000502080F31188BFF34F8FBFF36F8FFEE7C9
:10465000502080F31188BFF34F8FBFF36F8FFEE7B9
:104660005C000020540100201CB517480024CDE94F
:1046700000402346822215A1164800F0F5FC0128CF
:1046800003D100F0CFFE012809D0401C1AD15020E0
:1046900080F31188BFF34F8FBFF36F8FFEE7502079
:1046A00080F31188BFF34F8FBFF36F8F06484FF031
:1046B000FF312C38816201214161C460BDE81C409A
:1046C00000F036B91CBD00008800002049444C456C
:1046D00000000000993900080248016B491C016381
:1046E000704700005C00002010B51F4C206B10B11B
:1046F0000120E06110BD0020E06120684FF0A5328C
:10470000006B0168914208D14168914205D18168EE
:10471000914202D1C068904204D0216820683431AF
:10472000FFF721FD20691149B0FA80F0C0F11F00A8
:1047300000EB800051F820206AB101EB800000F10D
:104740000802416849684160914201D1496841606D
:10475000C868206010BD502080F31188BFF34F8FD0
:10476000BFF36F8FFEE700005C00002054010020C3
:1047700010B51C20FFF75CFB040004D00020206073
:10478000201DFFF7FBFC204610BD2DE9F041002560
:10479000884604000AD05FEA18600FD0502080F3EA
:1047A0001188BFF34F8FBFF36F8FFEE7502080F368
:1047B0001188BFF34F8FBFF36F8FFEE7261D04F103
:1047C0000C07FFF789FF2168F06841EA08012160C2
:1047D00017E0D0E9001601F07F425301236821F071
:1047E0007F4102D40B4203D10AE031EA030307D12F
:1047F000D20100D50D43216841F00071FFF7FCFEA6
:104800003046B842E5D12068A843206000F0A8FDFA
:104810002068BDE8F081000013460A4601460148C1
:1048200000F058BE794100082DE9F0479A46089FEC
:1048300091460D4604004FF0000609D0280E0FD017
:10484000502080F31188BFF34F8FBFF36F8FFEE7C7
:10485000502080F31188BFF34F8FBFF36F8FFEE7B7
:104860001DB100F02DFC40B110E0502080F3118804
:10487000BFF34F8FBFF36F8FFEE73FB1502080F340
:104880001188BFF34F8FBFF36F8FFEE7FFF724FF51
:10489000D4F80080524629464046FFF775FA40B1E9
:1048A00000274646B9F1000F15D02068A8432060C4
:1048B00011E0AFB1B9F1000F01D04FF08076BAF13D
:1048C000000F01D046F0806645EA06013A46201DF9
:1048D000FFF716FE002600F043FD1FB310B109E0FC
:1048E0004646F8E711494FF080500860BFF34F8FFC
:1048F000BFF36F8FFFF722FC0646800110D4FFF74D
:104900006FFC2668524629463046FFF73DFA28B12B
:10491000B9F1000F02D02068A8432060FFF780FCA7
:1049200026F07F463046BDE8F087000004ED00E049
:104930001CB537480168374A914207D1502080F3AF
:104940001188BFF34F8FBFF36F8FFEE700683149C7
:10495000491E884207D1502080F31188BFF34F8F42
:10496000BFF36F8FFEE72C4908780190FF20087095
:1049700008788DF800009DF800009DF8002000F0F8
:10498000F000904207D0502080F31188BFF34F8F82
:10499000BFF36F8FFEE79DF80000204B00F0500042
:1049A00018700720986006E0401E98609DF800008F
:1049B00040008DF800009DF8000000069868F3D4D0
:1049C000032807D0502080F31188BFF34F8FBFF327
:1049D0006F8FFEE74FF440709860019808700C48A4
:1049E0002030016841F470010160016841F07041BC
:1049F0000160FFF757FC00205860FBF78FFC084868
:104A0000016841F040410160FBF774FC00201CBDCF
:104A100000ED00E071C20F4100E400E0C40000209E
:104A200034EF00E010B502460021012000F00CF840
:104A3000040007D00021416001600B460A46C160B6
:104A400000F070F8204610BD2DE9F04117460E46E3
:104A5000050016D0EEB105FB06F05030FFF7E8F97F
:104A600004000CD004F15000AEB12060C4E90F5630
:104A70002046012100F012F8204684F84C70BDE871
:104A8000F081502080F31188BFF34F8FBFF36F8FF9
:104A9000FEE70020E1E72460E8E7000070B50D467E
:104AA000040025D0FFF79CFBD4E90F20216802FB0E
:104AB000001161600021A1632168A1600A46D4E968
:104AC0000F01401E00FB0121E16021464FF0FF3045
:104AD00001F8440F487004F110008DB1FFF74EFB50
:104AE00004F12400FFF74AFBFFF79AFB012070BD99
:104AF000502080F31188BFF34F8FBFF36F8FFEE715
:104B000021690029F0D000F0EFFB0028ECD0044927
:104B10004FF080500860BFF34F8FBFF36F8FE3E714
:104B200004ED00E02DE9FF4F83B01F468B460400E3
:104B30004FF0000603D0BBF1000F08D011E0502069
:104B400080F31188BFF34F8FBFF36F8FFEE7206CA8
:104B500038B1502080F31188BFF34F8FBFF36F8FB0
:104B6000FEE7022F0AD1E06B012807D0502080F326
:104B70001188BFF34F8FBFF36F8FFEE700F0A0FAED
:104B8000DFF800914FF0000A4FF0805848B90598BF
:104B900038B1502080F31188BFF34F8FBFF36F8F70
:104BA000FEE7FFF71DFBA06BE16B884205D3022FE8
:104BB00003D00598C8B1DEB11EE03A4659462046FA
:104BC000FEF783FE616A19B104F1240000F08CFB4A
:104BD00028B1C9F80080BFF34F8FBFF36F8FFFF785
:104BE0001FFB012007B0BDE8F08FFFF719FB21E0A4
:104BF0006846FFF743FC0126FFF712FBFFF76CFD49
:104C0000FFF7EEFA94F94400401C01D184F844A067
:104C100094F94500401C01D184F845A0FFF700FB42
:104C200005A9684600F0E6F930B12046FFF7CAF85A
:104C300000F096FB0020D5E7FFF7D2FAA06BE16BFE
:104C4000884201D1012500E00025FFF7E9FA95B17E
:104C500004F110000599FFF71FFC2046FFF7B2F89A
:104C600000F07EFB00289CD1C9F80080BFF34F8F75
:104C7000BFF36F8F95E72046FFF7A4F800F070FBB5
:104C80008FE7000004ED00E02DE9F0471F46904655
:104C90008946040003D0B9F1000F08D011E050207C
:104CA00080F31188BFF34F8FBFF36F8FFEE7206C47
:104CB00038B1502080F31188BFF34F8FBFF36F8F4F
:104CC000FEE7022F0AD1E06B012807D0502080F3C5
:104CD0001188BFF34F8FBFF36F8FFEE7FFF7F4FA32
:104CE0005020EFF3118680F31188BFF34F8FBFF38D
:104CF0006F8FA06BE16B884206D3022F04D0002097
:104D000086F31188BDE8F08794F945503A46494644
:104D10002046FEF7DAFD681C04D06D1C84F845506F
:104D20000120EDE7606A0028FAD004F1240000F0C9
:104D3000DBFA0028F4D0B8F1000FF1D00121C8F857
:104D40000010EDE72DE9F74783B08A4604004FF0E5
:104D5000000603D0BAF1000F08D011E0502080F314
:104D60001188BFF34F8FBFF36F8FFEE7206C38B110
:104D7000502080F31188BFF34F8FBFF36F8FFEE792
:104D800000F09EF9DFF8F09000274FF0805848B906
:104D9000059838B1502080F31188BFF34F8FBFF3CF
:104DA0006F8FFEE7FFF71CFAA56BC5B15146204691
:104DB000FEF778FD6D1EA563206950B104F1100067
:104DC00000F092FA28B1C9F80080BFF34F8FBFF30B
:104DD0006F8FFFF725FA012006B0BDE8F087059830
:104DE00008B11EB106E0FFF71BFA27E06846FFF79F
:104DF00045FB0126FFF714FAFFF76EFCFFF7F0F909
:104E000094F94400401C01D184F8447094F94500A1
:104E1000401C01D184F84570FFF702FA05A96846E5
:104E200000F0E8F8002820460AD0FEF7CBFF00F09B
:104E300097FA2046FEF770FE0028B3D00020CBE79B
:104E4000FEF76AFE90B104F124000599FFF724FBF8
:104E50002046FEF7B7FF00F083FA0028A2D1C9F878
:104E60000080BFF34F8FBFF36F8F9BE72046FEF7A5
:104E7000A9FF00F075FA95E704ED00E02DE9F34392
:104E80004FF0000583B004002E4609D0206C78B1A5
:104E9000502080F31188BFF34F8FBFF36F8FFEE771
:104EA000502080F31188BFF34F8FBFF36F8FFEE761
:104EB00000F006F9DFF8389100274FF0805848B924
:104EC000049838B1502080F31188BFF34F8FBFF39F
:104ED0006F8FFEE7FFF784F9A06BC8B1401EA06397
:104EE000206810B9FFF712F86060206950B104F132
:104EF000100000F0F9F928B1C9F80080BFF34F8F16
:104F0000BFF36F8FFFF78CF9012005B0BDE8F08388
:104F1000049808B165B10FE03EB1502080F31188CC
:104F2000BFF34F8FBFF36F8FFEE7FFF779F95DE0B7
:104F30006846FFF7A3FA0125FFF772F9FFF7CCFBEC
:104F4000FFF74EF994F94400401C01D184F84470F5
:104F500094F94500401C01D184F84570FFF760F9D1
:104F600004A9684600F046F80028204612D0FEF753
:104F700029FF00F0F5F92046FEF7CEFD0028A9D064
:104F80009EB3FFF72DF9606A50B3206B0068C0F143
:104F9000200126E0FEF7C0FDE0B1206838B9FFF738
:104FA0001FF9606800F056F90646FFF739F904F179
:104FB00024000499FFF770FA2046FEF703FF00F083
:104FC000CFF9002886D1C9F80080BFF34F8FBFF317
:104FD0006F8F7FE72046FEF7F5FE00F0C1F979E715
:104FE00000216068FFF7B2FA9FE7FFE700208CE737
:104FF00004ED00E02DE9F0410C46050011D0C4B1EC
:10500000FFF7EEF8174EF1686B682268C81A571C54
:1050100017D02F68366AB74219D08B4217D80124AF
:1050200010E0502080F31188BFF34F8FBFF36F8FD4
:10503000FEE7502080F31188BFF34F8FBFF36F8FCF
:10504000FEE70024FFF7ECF82046BDE8F08182423D
:1050500005D9101A20602846FFF710FAF1E7002062
:105060002060DCE75C0000202DE9FF5F8346DDE97E
:105070000E87994616468A469000FEF7D9FE05002F
:105080001AD05820FEF7D4FE040012D02563002168
:10509000CDE90241CDE900874B463246514658469C
:1050A000FEF7AAFC2046FEF76DFB012004B0BDE828
:1050B000F09F2846FFF7C8F84FF0FF30F6E70000F2
:1050C0000548416919B1006B18B1002070470120F3
:1050D00070470220704700005C0000200148C06853
:1050E000704700005C0000202DE9F041314F0026A0
:1050F000386B18B1B869401CB86152E0FD686D1C8E
:10510000FD6013D1786B006838B1502080F31188AE
:10511000BFF34F8FBFF36F8FFEE7786BB96B796387
:10512000B863386A401C3862FEF7C0FDB86ADFF821
:105130008880854209D3786B006890B1786BC0682D
:10514000C468606885420FD2B8623868C06A00EBF4
:10515000800158F82100012800D90126B86900B360
:1051600021E04FF0FF30EFE7201DFEF7D3FFA06AEC
:1051700018B104F11800FEF7CDFFE06A01213A6989
:1051800081401143396100EB800108EB8100211D52
:10519000FFF71AF8E06A3968C96A8842CBD301265A
:1051A000C9E7FEF7E8FFF86900B101263046BDE81F
:1051B000F08100005C0000205401002070B5040064
:1051C0004FF0000041D0214D29688C4207D050207B
:1051D00080F31188BFF34F8FBFF36F8FFEE7E16C51
:1051E00071B1491EE164A36CE26A9A422DD0002994
:1051F0002BD1201DFEF78EFF1549012240B112E090
:10520000502080F31188BFF34F8FBFF36F8FFEE7FD
:10521000E06A00EB800351F8233023B92B6902FACE
:1052200000F083432B61A06CE062C0F12000A0611C
:10523000E06A2B6982401A432A6100EB800001EB8F
:105240008000211DFEF7C0FF012070BD5C00002022
:105250005401002070B504004FF0000039D0204DFB
:10526000E16A2A68D26A914234D2A069002804DB3C
:105270002868C06AC0F12000A061E06A194E00EB06
:105280008000616906EB800081421ED1201DFEF77F
:1052900041FF012150B9E06A00EB800256F822205C
:1052A00022B92A6901FA00F082432A612868C06A9B
:1052B000E0622A6981401143296100EB800006EB1E
:1052C0008000211DFEF780FF02E02868C06AE062CE
:1052D000012070BDA16C2A68D26A9142F8D370BDDA
:1052E0005C000020540100202DE9F041C068C46832
:1052F000ACB104F118000746FEF70CFF154D286B02
:105300000126A0B139461448FEF75EFFE06A29681D
:10531000C96A88421BD90120EE61BDE8F0815020A6
:1053200080F31188BFF34F8FBFF36F8FFEE7201D0F
:10533000FEF7F0FEE06A2A6906FA00F111432961DE
:10534000064900EB800001EB8000211DDCE7002016
:10535000E3E700005C000020FC0300205401002073
:105360002DE9F0472C4D00242746286B38B1FEF775
:1053700037FF286B401E2863286B40B146E0502061
:1053800080F31188BFF34F8FBFF36F8FFEE7A868DC
:1053900022490126D0B3A1F52A798846D8F8001011
:1053A000E9B1D8F80C00C46804F11800FEF7B2FEA9
:1053B000201DFEF7AFFEE06A2A6906FA00F11143EC
:1053C000296100EB800109EB8100211DFEF7FCFE45
:1053D000E06A2968C96A8842E0D3EE61DEE70CB171
:1053E000FEF764FCAC693CB1FFF77EFE00B1EE61F4
:1053F000641EF9D10020A861E86938B10849012785
:1054000038070860BFF34F8FBFF36F8FFEF708FFB9
:105410003846BDE8F08700005C000020FC03002057
:1054200004ED00E01CB5FEF715FA0D48006868B100
:105430000B490220091DCDE9000100234FF48272BF
:1054400008A10A48FFF710FE002807D1502080F37A
:105450001188BFF34F8FBFF36F8FFEE71CBD0000B5
:1054600098000020546D7220537663009D3D000823
:105470002DE9FF411F4603000A9E4FF0000015D0A2
:10548000134D2C68002C0ED08DE80E00062917DA7B
:10549000FFF716FE02284FF000030FD000226946E6
:1054A0002868FFF73FFB04B0BDE8F081502080F38F
:1054B0001188BFF34F8FBFF36F8FFEE73246EEE7E1
:1054C00000233A4669462046FFF7DEFBEBE7000083
:1054D000980000207FB56FF0010401AE009486E8CB
:1054E000070005481D4600232A4669460068FFF765
:1054F000CBFB04B070BD00009800002010B500295F
:105500000AD00878002807D005487844FCF7E0F96D
:10551000002801D0002010BD0248784410BD0000D2
:10552000220A00001A0A000010B500290AD00878E3
:10553000002807D005487844FCF7CAF9002801D0B4
:10554000002010BD0248784410BD0000120A00007F
:105550000A0A00004FF04070E1EE100A7047FBF7B6
:105560008CBD000079300008FC5E000800020000DD
:1055700000000000050000001C000020E9310008C8
:10558000EC5E0008000200000000000005000000C2
:105590002000002059330008CC5E00080002000003
:1055A0000000000005000000240000203532000843
:1055B000DC5E0008000200000000000005000000A2
:1055C0002800002000000000000000000000000093
:1055D00000000000000000000000000000000000CB
:1055E00000000000002F000000000700070000146A
:1055F0007F147F1400242A7F2A1200626408132378
:1056000000364955225000000503000000001C220E
:105610004100000041221C000014083E081400084C
:10562000083E0808000000A06000000808080808FC
:10563000000060600000002010080402003E514994
:10564000453E0000427F4000004261514946002132
:1056500041454B31001814127F100027454545394C
:10566000003C4A49493000017109050300364949A7
:10567000493600064949291E000036360000000060
:1056800056360000000814224100001414141414AB
:105690000000412214080002015109060032495954
:1056A000513E007C1211127C007F49494936003E70
:1056B00041414122007F4141221C007F494949412B
:1056C000007F09090901003E4149497A007F080825
:1056D000087F0000417F4100002040413F01007FE2
:1056E00008142241007F40404040007F020C027FAE
:1056F000007F0408107F003E4141413E007F0909C0
:105700000906003E4151215E007F091929460046E5
:10571000494949310001017F0101003F4040403FBC
:10572000001F2040201F003F4038403F0063140806
:1057300014630007087008070061514945430000E1
:105740007F41410000552A552A55000041417F0004
:1057500000040201020400404040404000000102F9
:105760000400002054545478007F484444380038E2
:105770004444442000384444487F0038545454186A
:1057800000087E0901020018A4A4A47C007F08047C
:1057900004780000447D4000004080847D00007F4C
:1057A000102844000000417F4000007C0418047869
:1057B000007C0804047800384444443800FC242465
:1057C00024180018242418FC007C0804040800484D
:1057D0005454542000043F444020003C4040207C6E
:1057E000001C2040201C003C4030403C004428105D
:1057F0002844001CA0A0A07C004464544C44141411
:105800001414141400000000000000000000000048
:1058100000000000000000F800000000000000335D
:105820003000000000100C06100C06000000000004
:105830000000000040C07840C0784000043F0404ED
:105840003F040400007088FC08300000001820FFAE
:10585000211E0000F008F000E018000000211C03E9
:105860001E211E0000F00888700000001E21232465
:105870001927211010160E00000000000000000083
:1058800000000000000000E0180402000000000713
:105890001820400000020418E0000000004020181A
:1058A00007000000404080F0804040000202010FED
:1058B00001020200000000F0000000000101011FD1
:1058C00001010100000000000000000080B0700035
:1058D00000000000000000000000000000010101C5
:1058E0000101010100000000000000000030300054
:1058F000000000000000000080601804006018062E
:105900000100000000E010080810E000000F102067
:1059100020100F00001010F8000000000020203FB1
:10592000202000000070080808887000003028243B
:1059300022213000003008888848300000182020DC
:1059400020110E000000C02010F800000007042401
:10595000243F240000F80888880808000019212046
:1059600020110E0000E0108888180000000F1120A0
:1059700020110E0000380808C83808000000003F59
:10598000000000000070880808887000001C2221B8
:1059900021221C0000E010080810E0000000312265
:1059A00022110F00000000C0C00000000000003005
:1059B0003000000000000080000000000000806057
:1059C00000000000000080402010080000010204D8
:1059D00008102000404040404040400004040404BF
:1059E000040404000008102040800000002010087B
:1059F00004020100007048080808F00000000030B0
:105A000036010000C030C828E810E000071827243D
:105A100023140B000000C038E0000000203C2302EB
:105A20000227382008F8888888700000203F20204E
:105A300020110E00C0300808080838000718202080
:105A40002010080008F808080810E000203F202077
:105A500020100F0008F88888E8081000203F202058
:105A60002320180008F88888E8081000203F20004C
:105A700003000000C0300808083800000718202084
:105A8000221E020008F808000008F808203F210143
:105A900001213F20000808F8080800000020203FEE
:105AA0002020000000000808F8080800C08080805E
:105AB0007F00000008F888C028180800203F200157
:105AC0002638200008F8080000000000203F2020B1
:105AD0002020300008F8F800F8F80800203F003FC8
